{
  "_format": "hh-sol-artifact-1",
  "contractName": "AnonymousPoll",
  "sourceName": "contracts/AnonymousPoll.sol",
  "abi": [
    {
      "inputs": [],
      "stateMutability": "nonpayable",
      "type": "constructor"
    },
    {
      "inputs": [],
      "name": "ReentrancyGuardReentrantCall",
      "type": "error"
    },
    {
      "inputs": [
        {
          "internalType": "address",
          "name": "token",
          "type": "address"
        }
      ],
      "name": "SafeERC20FailedOperation",
      "type": "error"
    },
    {
      "anonymous": false,
      "inputs": [
        {
          "indexed": true,
          "internalType": "uint256",
          "name": "pollId",
          "type": "uint256"
        },
        {
          "indexed": true,
          "internalType": "bytes32",
          "name": "voterCommitment",
          "type": "bytes32"
        }
      ],
      "name": "CommentSubmitted",
      "type": "event"
    },
    {
      "anonymous": false,
      "inputs": [
        {
          "indexed": true,
          "internalType": "address",
          "name": "to",
          "type": "address"
        },
        {
          "indexed": false,
          "internalType": "uint256",
          "name": "amount",
          "type": "uint256"
        }
      ],
      "name": "FeesWithdrawn",
      "type": "event"
    },
    {
      "anonymous": false,
      "inputs": [
        {
          "indexed": true,
          "internalType": "address",
          "name": "previousOwner",
          "type": "address"
        },
        {
          "indexed": true,
          "internalType": "address",
          "name": "newOwner",
          "type": "address"
        }
      ],
      "name": "OwnershipTransferred",
      "type": "event"
    },
    {
      "anonymous": false,
      "inputs": [],
      "name": "Paused",
      "type": "event"
    },
    {
      "anonymous": false,
      "inputs": [
        {
          "indexed": true,
          "internalType": "uint256",
          "name": "pollId",
          "type": "uint256"
        }
      ],
      "name": "PollClosed",
      "type": "event"
    },
    {
      "anonymous": false,
      "inputs": [
        {
          "indexed": true,
          "internalType": "uint256",
          "name": "pollId",
          "type": "uint256"
        },
        {
          "indexed": true,
          "internalType": "address",
          "name": "creator",
          "type": "address"
        },
        {
          "indexed": false,
          "internalType": "bool",
          "name": "commentsAllowed",
          "type": "bool"
        }
      ],
      "name": "PollCreated",
      "type": "event"
    },
    {
      "anonymous": false,
      "inputs": [
        {
          "indexed": false,
          "internalType": "uint256",
          "name": "newFee",
          "type": "uint256"
        }
      ],
      "name": "PollCreationFeeUpdated",
      "type": "event"
    },
    {
      "anonymous": false,
      "inputs": [
        {
          "indexed": true,
          "internalType": "uint256",
          "name": "pollId",
          "type": "uint256"
        }
      ],
      "name": "PollMetadataUpdated",
      "type": "event"
    },
    {
      "anonymous": false,
      "inputs": [],
      "name": "Unpaused",
      "type": "event"
    },
    {
      "anonymous": false,
      "inputs": [
        {
          "indexed": true,
          "internalType": "uint256",
          "name": "pollId",
          "type": "uint256"
        },
        {
          "indexed": true,
          "internalType": "bytes32",
          "name": "voterCommitment",
          "type": "bytes32"
        },
        {
          "indexed": true,
          "internalType": "uint256",
          "name": "optionId",
          "type": "uint256"
        }
      ],
      "name": "VoteCast",
      "type": "event"
    },
    {
      "inputs": [
        {
          "internalType": "uint256",
          "name": "pollId",
          "type": "uint256"
        }
      ],
      "name": "closePoll",
      "outputs": [],
      "stateMutability": "nonpayable",
      "type": "function"
    },
    {
      "inputs": [],
      "name": "collectedFees",
      "outputs": [
        {
          "internalType": "uint256",
          "name": "",
          "type": "uint256"
        }
      ],
      "stateMutability": "view",
      "type": "function"
    },
    {
      "inputs": [
        {
          "internalType": "bytes",
          "name": "encryptedQuestion",
          "type": "bytes"
        },
        {
          "internalType": "bytes",
          "name": "encryptedQuestionImageCID",
          "type": "bytes"
        },
        {
          "internalType": "bytes[]",
          "name": "encryptedOptions",
          "type": "bytes[]"
        },
        {
          "internalType": "bytes[]",
          "name": "encryptedOptionImageCIDs",
          "type": "bytes[]"
        },
        {
          "internalType": "bool",
          "name": "commentsAllowed",
          "type": "bool"
        },
        {
          "internalType": "uint256",
          "name": "startTime",
          "type": "uint256"
        },
        {
          "internalType": "uint256",
          "name": "endTime",
          "type": "uint256"
        }
      ],
      "name": "createPoll",
      "outputs": [
        {
          "internalType": "uint256",
          "name": "",
          "type": "uint256"
        }
      ],
      "stateMutability": "payable",
      "type": "function"
    },
    {
      "inputs": [
        {
          "internalType": "uint256",
          "name": "pollId",
          "type": "uint256"
        },
        {
          "internalType": "bytes32",
          "name": "voterCommitment",
          "type": "bytes32"
        }
      ],
      "name": "getEncryptedComments",
      "outputs": [
        {
          "internalType": "bytes[]",
          "name": "",
          "type": "bytes[]"
        }
      ],
      "stateMutability": "view",
      "type": "function"
    },
    {
      "inputs": [
        {
          "internalType": "uint256",
          "name": "pollId",
          "type": "uint256"
        }
      ],
      "name": "getEncryptedQuestionImageCID",
      "outputs": [
        {
          "internalType": "bytes",
          "name": "",
          "type": "bytes"
        }
      ],
      "stateMutability": "view",
      "type": "function"
    },
    {
      "inputs": [
        {
          "internalType": "uint256",
          "name": "pollId",
          "type": "uint256"
        },
        {
          "internalType": "uint256",
          "name": "optionId",
          "type": "uint256"
        }
      ],
      "name": "getEncryptedVoteCount",
      "outputs": [
        {
          "internalType": "euint64",
          "name": "",
          "type": "bytes32"
        }
      ],
      "stateMutability": "view",
      "type": "function"
    },
    {
      "inputs": [
        {
          "internalType": "uint256",
          "name": "pollId",
          "type": "uint256"
        },
        {
          "internalType": "uint256",
          "name": "optionId",
          "type": "uint256"
        }
      ],
      "name": "getOptionEncryptedImageCID",
      "outputs": [
        {
          "internalType": "bytes",
          "name": "",
          "type": "bytes"
        }
      ],
      "stateMutability": "view",
      "type": "function"
    },
    {
      "inputs": [
        {
          "internalType": "uint256",
          "name": "pollId",
          "type": "uint256"
        }
      ],
      "name": "getPollSummary",
      "outputs": [
        {
          "internalType": "bool",
          "name": "isActive",
          "type": "bool"
        },
        {
          "internalType": "bool",
          "name": "commentsAllowed",
          "type": "bool"
        },
        {
          "internalType": "uint256",
          "name": "optionsCount",
          "type": "uint256"
        },
        {
          "internalType": "uint256",
          "name": "startTime",
          "type": "uint256"
        },
        {
          "internalType": "uint256",
          "name": "endTime",
          "type": "uint256"
        },
        {
          "internalType": "address",
          "name": "creator",
          "type": "address"
        }
      ],
      "stateMutability": "view",
      "type": "function"
    },
    {
      "inputs": [
        {
          "internalType": "address",
          "name": "creator",
          "type": "address"
        }
      ],
      "name": "getPollsByCreator",
      "outputs": [
        {
          "internalType": "uint256[]",
          "name": "",
          "type": "uint256[]"
        }
      ],
      "stateMutability": "view",
      "type": "function"
    },
    {
      "inputs": [
        {
          "internalType": "address",
          "name": "creator",
          "type": "address"
        },
        {
          "internalType": "uint256",
          "name": "start",
          "type": "uint256"
        },
        {
          "internalType": "uint256",
          "name": "count",
          "type": "uint256"
        }
      ],
      "name": "getPollsByCreatorPaged",
      "outputs": [
        {
          "internalType": "uint256[]",
          "name": "",
          "type": "uint256[]"
        }
      ],
      "stateMutability": "view",
      "type": "function"
    },
    {
      "inputs": [
        {
          "internalType": "uint256",
          "name": "pollId",
          "type": "uint256"
        },
        {
          "internalType": "address",
          "name": "user",
          "type": "address"
        }
      ],
      "name": "isPollCreator",
      "outputs": [
        {
          "internalType": "bool",
          "name": "",
          "type": "bool"
        }
      ],
      "stateMutability": "view",
      "type": "function"
    },
    {
      "inputs": [],
      "name": "owner",
      "outputs": [
        {
          "internalType": "address",
          "name": "",
          "type": "address"
        }
      ],
      "stateMutability": "view",
      "type": "function"
    },
    {
      "inputs": [],
      "name": "pause",
      "outputs": [],
      "stateMutability": "nonpayable",
      "type": "function"
    },
    {
      "inputs": [],
      "name": "paused",
      "outputs": [
        {
          "internalType": "bool",
          "name": "",
          "type": "bool"
        }
      ],
      "stateMutability": "view",
      "type": "function"
    },
    {
      "inputs": [],
      "name": "pollCreationFee",
      "outputs": [
        {
          "internalType": "uint256",
          "name": "",
          "type": "uint256"
        }
      ],
      "stateMutability": "view",
      "type": "function"
    },
    {
      "inputs": [
        {
          "internalType": "address",
          "name": "creator",
          "type": "address"
        }
      ],
      "name": "pollsByCreatorCount",
      "outputs": [
        {
          "internalType": "uint256",
          "name": "",
          "type": "uint256"
        }
      ],
      "stateMutability": "view",
      "type": "function"
    },
    {
      "inputs": [],
      "name": "protocolId",
      "outputs": [
        {
          "internalType": "uint256",
          "name": "",
          "type": "uint256"
        }
      ],
      "stateMutability": "view",
      "type": "function"
    },
    {
      "inputs": [
        {
          "internalType": "address",
          "name": "tokenAddress",
          "type": "address"
        },
        {
          "internalType": "uint256",
          "name": "amount",
          "type": "uint256"
        }
      ],
      "name": "recoverERC20",
      "outputs": [],
      "stateMutability": "nonpayable",
      "type": "function"
    },
    {
      "inputs": [],
      "name": "renounceOwnership",
      "outputs": [],
      "stateMutability": "nonpayable",
      "type": "function"
    },
    {
      "inputs": [
        {
          "internalType": "uint256",
          "name": "newFee",
          "type": "uint256"
        }
      ],
      "name": "setPollCreationFee",
      "outputs": [],
      "stateMutability": "nonpayable",
      "type": "function"
    },
    {
      "inputs": [
        {
          "internalType": "uint256",
          "name": "pollId",
          "type": "uint256"
        },
        {
          "internalType": "bytes32",
          "name": "voterCommitment",
          "type": "bytes32"
        },
        {
          "internalType": "bytes",
          "name": "encryptedComment",
          "type": "bytes"
        }
      ],
      "name": "submitComment",
      "outputs": [],
      "stateMutability": "nonpayable",
      "type": "function"
    },
    {
      "inputs": [],
      "name": "totalPolls",
      "outputs": [
        {
          "internalType": "uint256",
          "name": "",
          "type": "uint256"
        }
      ],
      "stateMutability": "view",
      "type": "function"
    },
    {
      "inputs": [
        {
          "internalType": "address",
          "name": "newOwner",
          "type": "address"
        }
      ],
      "name": "transferOwnership",
      "outputs": [],
      "stateMutability": "nonpayable",
      "type": "function"
    },
    {
      "inputs": [],
      "name": "unpause",
      "outputs": [],
      "stateMutability": "nonpayable",
      "type": "function"
    },
    {
      "inputs": [
        {
          "internalType": "uint256",
          "name": "pollId",
          "type": "uint256"
        },
        {
          "internalType": "bytes",
          "name": "newEncryptedQuestion",
          "type": "bytes"
        },
        {
          "internalType": "bytes",
          "name": "newEncryptedQuestionImageCID",
          "type": "bytes"
        }
      ],
      "name": "updatePollMetadata",
      "outputs": [],
      "stateMutability": "nonpayable",
      "type": "function"
    },
    {
      "inputs": [
        {
          "internalType": "uint256",
          "name": "pollId",
          "type": "uint256"
        },
        {
          "internalType": "uint256",
          "name": "optionId",
          "type": "uint256"
        },
        {
          "internalType": "bytes32",
          "name": "voterCommitment",
          "type": "bytes32"
        },
        {
          "internalType": "externalEuint64",
          "name": "encryptedWeight",
          "type": "bytes32"
        },
        {
          "internalType": "bytes",
          "name": "inputProof",
          "type": "bytes"
        }
      ],
      "name": "vote",
      "outputs": [],
      "stateMutability": "nonpayable",
      "type": "function"
    },
    {
      "inputs": [
        {
          "internalType": "address payable",
          "name": "to",
          "type": "address"
        }
      ],
      "name": "withdrawFees",
      "outputs": [],
      "stateMutability": "nonpayable",
      "type": "function"
    }
  ],
  "bytecode": "0x608060405234801562000010575f80fd5b50466001036200010557620000ff6200005660408051606080820183525f8083526020808401829052928401819052835191820184528082529181018290529182015290565b80517f9e7b61f58c47dc699ac88507c4f5bb9f121c03808c5676a8078fe583e464970080546001600160a01b03199081166001600160a01b039384161790915560208301517f9e7b61f58c47dc699ac88507c4f5bb9f121c03808c5676a8078fe583e46497018054831691841691909117905560408301517f9e7b61f58c47dc699ac88507c4f5bb9f121c03808c5676a8078fe583e46497028054909216921691909117905550565b62000218565b4662aa36a7036200018f57620000ff62000056604080516060810182525f8082526020820181905291810191909152506040805160608101825273f0ffdc93b7e186bc2f8cb3daa75d86d1930a433d81527392c920834ec8941d2c77d188936e1f7a6f49c127602082015273be0e383937d564d7ff0bc3b46c51f0bf8d5c311a9181019190915290565b46617a690362000218576200021862000056604080516060810182525f8082526020820181905291810191909152506040805160608101825273f0ffdc93b7e186bc2f8cb3daa75d86d1930a433d81527392c920834ec8941d2c77d188936e1f7a6f49c127602082015273be0e383937d564d7ff0bc3b46c51f0bf8d5c311a9181019190915290565b60015f81815581546001600160a01b031916339081179092556509184e72a0006002556040517f8be0079c531659141344cd1fd0a4f28419497f9722a3daafe3b4186f6b6457e0908290a3612bbd80620002715f395ff3fe6080604052600436106101a4575f3560e01c80638da5cb5b116100e7578063c3ea296511610087578063f184bab111610062578063f184bab1146104cc578063f2fde38b146104eb578063f8bff7451461050a578063fb790a3214610529575f80fd5b8063c3ea296514610465578063da1f12ab14610499578063f046d8cc146104ad575f80fd5b80639534e637116100c25780639534e637146103e7578063a1ec699f14610406578063a2eeeb2f14610432578063b84ba93814610446575f80fd5b80638da5cb5b1461037c5780639003adfe146103b3578063907d64c9146103c8575f80fd5b80633f4ba83a116101525780635c975abb1161012d5780635c975abb14610315578063715018a6146103355780638456cb59146103495780638980f11f1461035d575f80fd5b80633f4ba83a146102cf578063400706b4146102e3578063553927ce146102f6575f80fd5b80631e0412ab116101825780631e0412ab1461022957806324be3bdd1461024c5780633a8642cf14610278575f80fd5b806301d0c6b0146101a857806309c0abbc146101dc578063164e68de14610208575b5f80fd5b3480156101b3575f80fd5b506101c76101c236600461240e565b610548565b60405190151581526020015b60405180910390f35b3480156101e7575f80fd5b506101fb6101f636600461243c565b61059d565b6040516101d3919061249f565b348015610213575f80fd5b50610227610222366004612501565b6106e9565b005b348015610234575f80fd5b5061023e60025481565b6040519081526020016101d3565b348015610257575f80fd5b5061026b61026636600461243c565b610881565b6040516101d3919061251c565b348015610283575f80fd5b5061029761029236600461252e565b6109e1565b604080519615158752941515602087015293850192909252606084015260808301526001600160a01b031660a082015260c0016101d3565b3480156102da575f80fd5b50610227610a95565b61023e6102f13660046125df565b610b12565b348015610301575f80fd5b506102276103103660046126bd565b610f9b565b348015610320575f80fd5b506001546101c790600160a01b900460ff1681565b348015610340575f80fd5b5061022761115e565b348015610354575f80fd5b506102276111fa565b348015610368575f80fd5b50610227610377366004612731565b61127d565b348015610387575f80fd5b5060015461039b906001600160a01b031681565b6040516001600160a01b0390911681526020016101d3565b3480156103be575f80fd5b5061023e60035481565b3480156103d3575f80fd5b506102276103e236600461275b565b6112df565b3480156103f2575f80fd5b5061022761040136600461252e565b6115e9565b348015610411575f80fd5b506104256104203660046127aa565b61171b565b6040516101d391906127dc565b34801561043d575f80fd5b5060045461023e565b348015610451575f80fd5b5061022761046036600461281f565b611820565b348015610470575f80fd5b5061023e61047f366004612501565b6001600160a01b03165f9081526005602052604090205490565b3480156104a4575f80fd5b5061023e611b60565b3480156104b8575f80fd5b5061026b6104c736600461252e565b611b95565b3480156104d7575f80fd5b506102276104e636600461252e565b611c88565b3480156104f6575f80fd5b50610227610505366004612501565b611d09565b348015610515575f80fd5b5061023e61052436600461243c565b611e0d565b348015610534575f80fd5b50610425610543366004612501565b611ee6565b6004545f90831061055a57505f610597565b816001600160a01b03166004848154811061057757610577612884565b5f9182526020909120600660099092020101546001600160a01b03161490505b92915050565b60045460609083106105e55760405162461bcd60e51b815260206004820152600c60248201526b125b9d985b1a59081c1bdb1b60a21b60448201526064015b60405180910390fd5b600483815481106105f8576105f8612884565b905f5260205f2090600902016005015f8381526020019081526020015f20805480602002602001604051908101604052809291908181526020015f905b828210156106dd578382905f5260205f2001805461065290612898565b80601f016020809104026020016040519081016040528092919081815260200182805461067e90612898565b80156106c95780601f106106a0576101008083540402835291602001916106c9565b820191905f5260205f20905b8154815290600101906020018083116106ac57829003601f168201915b505050505081526020019060010190610635565b50505050905092915050565b6001546001600160a01b0316331461072f5760405162461bcd60e51b81526020600482015260096024820152682737ba1037bbb732b960b91b60448201526064016105dc565b610737611f4e565b5f600354116107885760405162461bcd60e51b815260206004820152600760248201527f4e6f20666565730000000000000000000000000000000000000000000000000060448201526064016105dc565b600380545f918290556040519091906001600160a01b0384169083908381818185875af1925050503d805f81146107da576040519150601f19603f3d011682016040523d82523d5f602084013e6107df565b606091505b50509050806108305760405162461bcd60e51b815260206004820152600f60248201527f5769746864726177206661696c6564000000000000000000000000000000000060448201526064016105dc565b826001600160a01b03167fc0819c13be868895eb93e40eaceb96de976442fa1d404e5c55f14bb65a8c489a8360405161086b91815260200190565b60405180910390a2505061087e60015f55565b50565b60045460609083106108c45760405162461bcd60e51b815260206004820152600c60248201526b125b9d985b1a59081c1bdb1b60a21b60448201526064016105dc565b5f600484815481106108d8576108d8612884565b905f5260205f20906009020190508060020180549050831061092d5760405162461bcd60e51b815260206004820152600e60248201526d24b73b30b634b21037b83a34b7b760911b60448201526064016105dc565b80600201838154811061094257610942612884565b905f5260205f209060030201600101805461095c90612898565b80601f016020809104026020016040519081016040528092919081815260200182805461098890612898565b80156109d35780601f106109aa576101008083540402835291602001916109d3565b820191905f5260205f20905b8154815290600101906020018083116109b657829003601f168201915b505050505091505092915050565b5f805f805f806004805490508710610a2a5760405162461bcd60e51b815260206004820152600c60248201526b125b9d985b1a59081c1bdb1b60a21b60448201526064016105dc565b5f60048881548110610a3e57610a3e612884565b5f9182526020909120600990910201600681015460028201546007830154600890930154600160a01b830460ff9081169d600160a81b85049091169c50919a509298509196506001600160a01b0316945092505050565b6001546001600160a01b03163314610adb5760405162461bcd60e51b81526020600482015260096024820152682737ba1037bbb732b960b91b60448201526064016105dc565b6001805460ff60a01b191690556040517fa45f47fdea8a1efdd9029a5691c7f759c32b7c698632b563573e155625d16933905f90a1565b6001545f90600160a01b900460ff1615610b605760405162461bcd60e51b815260206004820152600f60248201526e10dbdb9d1c9858dd081c185d5cd959608a1b60448201526064016105dc565b6002543414610bb15760405162461bcd60e51b815260206004820152600d60248201527f496e636f7272656374206665650000000000000000000000000000000000000060448201526064016105dc565b868514610c005760405162461bcd60e51b815260206004820152601060248201527f4f7074696f6e73206d69736d617463680000000000000000000000000000000060448201526064016105dc565b6002871015610c515760405162461bcd60e51b815260206004820152601760248201527f4e656564206174206c656173742032206f7074696f6e7300000000000000000060448201526064016105dc565b818310610ca05760405162461bcd60e51b815260206004820152601160248201527f496e76616c696420706f6c6c2074696d6500000000000000000000000000000060448201526064016105dc565b42831015610cf05760405162461bcd60e51b815260206004820152601260248201527f53746172742074696d6520696e2070617374000000000000000000000000000060448201526064016105dc565b3460035f828254610d0191906128e4565b909155505060048054600181018083555f83815291929083908110610d2857610d28612884565b905f5260205f209060090201905033816006015f6101000a8154816001600160a01b0302191690836001600160a01b031602179055508d8d825f019182610d70929190612956565b5060018101610d808c8e83612956565b50600681018054871515600160a81b027fffffffffffffffffffff0000ffffffffffffffffffffffffffffffffffffffff90911617600160a01b17905560078101859055600881018490555f5b89811015610f29578160020160405180606001604052808d8d85818110610df657610df6612884565b9050602002810190610e089190612a10565b8080601f0160208091040260200160405190810160405280939291908181526020018383808284375f920191909152505050908252506020018b8b85818110610e5357610e53612884565b9050602002810190610e659190612a10565b8080601f0160208091040260200160405190810160405280939291908181526020018383808284375f920182905250938552505060209092019150610ea990611f76565b905281546001810183555f92835260209092208151919260030201908190610ed19082612a53565b5060208201516001820190610ee69082612a53565b50604082015181600201555050610f20826002018281548110610f0b57610f0b612884565b905f5260205f20906003020160020154611f8c565b50600101610dcd565b50335f818152600560209081526040808320805460018101825590845291909220018490555183907faadd42136a8af4abe3fe4fd783fd11cd4343386418392c4808d02769696fe16b90610f82908a1515815260200190565b60405180910390a3509c9b505050505050505050505050565b600454859081108015610fe45750336001600160a01b031660048281548110610fc657610fc6612884565b5f9182526020909120600660099092020101546001600160a01b0316145b6110215760405162461bcd60e51b815260206004820152600e60248201526d139bdd08185d5d1a1bdc9a5e995960921b60448201526064016105dc565b60045486908110801561106057506004818154811061104257611042612884565b905f5260205f20906009020160060160149054906101000a900460ff165b61109c5760405162461bcd60e51b815260206004820152600d60248201526c506f6c6c20696e61637469766560981b60448201526064016105dc565b600154600160a01b900460ff16156110e85760405162461bcd60e51b815260206004820152600f60248201526e10dbdb9d1c9858dd081c185d5cd959608a1b60448201526064016105dc565b5f600488815481106110fc576110fc612884565b5f9182526020909120600990910201905080611119878983612956565b5060018101611129858783612956565b5060405188907fc6cdd79eae1885b2d966153463ed04a1e42010a0d3a63d8dd28f9e676cb237c1905f90a25050505050505050565b6001546001600160a01b031633146111a45760405162461bcd60e51b81526020600482015260096024820152682737ba1037bbb732b960b91b60448201526064016105dc565b6001546040515f916001600160a01b0316907f8be0079c531659141344cd1fd0a4f28419497f9722a3daafe3b4186f6b6457e0908390a36001805473ffffffffffffffffffffffffffffffffffffffff19169055565b6001546001600160a01b031633146112405760405162461bcd60e51b81526020600482015260096024820152682737ba1037bbb732b960b91b60448201526064016105dc565b6001805460ff60a01b1916600160a01b1790556040517f9e87fac88ff661f02d44f95383c817fece4bce600a3dab7a54406878b965e752905f90a1565b6001546001600160a01b031633146112c35760405162461bcd60e51b81526020600482015260096024820152682737ba1037bbb732b960b91b60448201526064016105dc565b6001546112db9083906001600160a01b031683611f9b565b5050565b60045484908110801561131e57506004818154811061130057611300612884565b905f5260205f20906009020160060160149054906101000a900460ff165b61135a5760405162461bcd60e51b815260206004820152600d60248201526c506f6c6c20696e61637469766560981b60448201526064016105dc565b6004548590811061139c5760405162461bcd60e51b815260206004820152600c60248201526b125b9d985b1a59081c1bdb1b60a21b60448201526064016105dc565b5f600482815481106113b0576113b0612884565b905f5260205f2090600902019050806007015442101580156113d6575080600801544211155b6114105760405162461bcd60e51b815260206004820152600b60248201526a141bdb1b0818db1bdcd95960aa1b60448201526064016105dc565b600154600160a01b900460ff161561145c5760405162461bcd60e51b815260206004820152600f60248201526e10dbdb9d1c9858dd081c185d5cd959608a1b60448201526064016105dc565b5f6004888154811061147057611470612884565b905f5260205f20906009020190508060060160159054906101000a900460ff166114dc5760405162461bcd60e51b815260206004820152601160248201527f436f6d6d656e74732064697361626c656400000000000000000000000000000060448201526064016105dc565b5f87815260038201602052604090205460ff1661153b5760405162461bcd60e51b815260206004820152601460248201527f4d75737420766f746520746f20636f6d6d656e7400000000000000000000000060448201526064016105dc565b846115885760405162461bcd60e51b815260206004820152600d60248201527f456d70747920636f6d6d656e740000000000000000000000000000000000000060448201526064016105dc565b5f8781526005820160209081526040822080546001810182559083529120016115b2868883612956565b50604051879089907fb8fe06349d3a916b63b8f6b5be836cedb7abc599b2b06ce42fde34dc927d12cc905f90a35050505050505050565b6004548190811080156116325750336001600160a01b03166004828154811061161457611614612884565b5f9182526020909120600660099092020101546001600160a01b0316145b61166f5760405162461bcd60e51b815260206004820152600e60248201526d139bdd08185d5d1a1bdc9a5e995960921b60448201526064016105dc565b60045482106116af5760405162461bcd60e51b815260206004820152600c60248201526b125b9d985b1a59081c1bdb1b60a21b60448201526064016105dc565b5f600483815481106116c3576116c3612884565b5f918252602082206006600990920201018054921515600160a01b0260ff60a01b199093169290921790915560405183917f703c67c157a1afb7d386ce5212ee88bf0a690bca998060e9595ebdfd747100ce91a25050565b6001600160a01b0383165f908152600560205260409020805460609190808510611756575050604080515f8152602081019091529050611819565b5f61176185876128e4565b90508181111561176e5750805b5f6117798783612b13565b67ffffffffffffffff811115611791576117916128f7565b6040519080825280602002602001820160405280156117ba578160200160208202803683370190505b509050865b82811015611812578481815481106117d9576117d9612884565b905f5260205f2001548289836117ef9190612b13565b815181106117ff576117ff612884565b60209081029190910101526001016117bf565b5093505050505b9392505050565b60045486908110801561185f57506004818154811061184157611841612884565b905f5260205f20906009020160060160149054906101000a900460ff165b61189b5760405162461bcd60e51b815260206004820152600d60248201526c506f6c6c20696e61637469766560981b60448201526064016105dc565b600454879081106118dd5760405162461bcd60e51b815260206004820152600c60248201526b125b9d985b1a59081c1bdb1b60a21b60448201526064016105dc565b5f600482815481106118f1576118f1612884565b905f5260205f209060090201905080600701544210158015611917575080600801544211155b6119515760405162461bcd60e51b815260206004820152600b60248201526a141bdb1b0818db1bdcd95960aa1b60448201526064016105dc565b600154600160a01b900460ff161561199d5760405162461bcd60e51b815260206004820152600f60248201526e10dbdb9d1c9858dd081c185d5cd959608a1b60448201526064016105dc565b5f60048a815481106119b1576119b1612884565b5f91825260208083208b84526003600990930201918201905260409091205490915060ff1615611a235760405162461bcd60e51b815260206004820152600d60248201527f416c726561647920766f7465640000000000000000000000000000000000000060448201526064016105dc565b60028101548910611a675760405162461bcd60e51b815260206004820152600e60248201526d24b73b30b634b21037b83a34b7b760911b60448201526064016105dc565b5f611aa78888888080601f0160208091040260200160405190810160405280939291908181526020018383808284375f9201919091525061200792505050565b9050611ad7826002018b81548110611ac157611ac1612884565b905f5260205f2090600302016002015482612014565b826002018b81548110611aec57611aec612884565b5f91825260208083206002600393840290910101939093558b8252840182526040808220805460ff191660011790556004850190925281812083905590518b918b918e917f2d5d5adff759341f1e2cc20cd5f911101d22fae5437742e48892ad7c1fd5316b91a45050505050505050505050565b5f46600103611b6f5750600190565b4662aa36a703611b80575061271190565b46617a6903611b90575061271190565b505f90565b6004546060908210611bd85760405162461bcd60e51b815260206004820152600c60248201526b125b9d985b1a59081c1bdb1b60a21b60448201526064016105dc565b60048281548110611beb57611beb612884565b905f5260205f2090600902016001018054611c0590612898565b80601f0160208091040260200160405190810160405280929190818152602001828054611c3190612898565b8015611c7c5780601f10611c5357610100808354040283529160200191611c7c565b820191905f5260205f20905b815481529060010190602001808311611c5f57829003601f168201915b50505050509050919050565b6001546001600160a01b03163314611cce5760405162461bcd60e51b81526020600482015260096024820152682737ba1037bbb732b960b91b60448201526064016105dc565b60028190556040518181527f1499e5b3a0b119753a11e121619d27fa8ebff5024a607ea6f4a5e10f716edae29060200160405180910390a150565b6001546001600160a01b03163314611d4f5760405162461bcd60e51b81526020600482015260096024820152682737ba1037bbb732b960b91b60448201526064016105dc565b6001600160a01b038116611da55760405162461bcd60e51b815260206004820152600e60248201527f4e6577206f776e6572207a65726f00000000000000000000000000000000000060448201526064016105dc565b6001546040516001600160a01b038084169216907f8be0079c531659141344cd1fd0a4f28419497f9722a3daafe3b4186f6b6457e0905f90a36001805473ffffffffffffffffffffffffffffffffffffffff19166001600160a01b0392909216919091179055565b6004545f908310611e4f5760405162461bcd60e51b815260206004820152600c60248201526b125b9d985b1a59081c1bdb1b60a21b60448201526064016105dc565b5f60048481548110611e6357611e63612884565b905f5260205f209060090201905080600201805490508310611eb85760405162461bcd60e51b815260206004820152600e60248201526d24b73b30b634b21037b83a34b7b760911b60448201526064016105dc565b806002018381548110611ecd57611ecd612884565b905f5260205f2090600302016002015491505092915050565b6001600160a01b0381165f90815260056020908152604091829020805483518184028101840190945280845260609392830182828015611c7c57602002820191905f5260205f20905b815481526020019060010190808311611f2f5750505050509050919050565b60025f5403611f7057604051633ee5aeb560e01b815260040160405180910390fd5b60025f55565b5f6105978267ffffffffffffffff166005612042565b5f611f9782306120ff565b5090565b604080516001600160a01b038416602482015260448082018490528251808303909101815260649091019091526020810180517bffffffffffffffffffffffffffffffffffffffffffffffffffffffff1663a9059cbb60e01b179052612002908490612188565b505050565b5f611819838360056121fa565b5f82612026576120235f611f76565b92505b81612037576120345f611f76565b91505b61181983835f61231a565b7f9e7b61f58c47dc699ac88507c4f5bb9f121c03808c5676a8078fe583e464970154604051639cd07acb60e01b81525f917f9e7b61f58c47dc699ac88507c4f5bb9f121c03808c5676a8078fe583e4649700916001600160a01b0390911690639cd07acb906120b79087908790600401612b46565b6020604051808303815f875af11580156120d3573d5f803e3d5ffd5b505050506040513d601f19601f820116820180604052508101906120f79190612b5a565b949350505050565b5f7f9e7b61f58c47dc699ac88507c4f5bb9f121c03808c5676a8078fe583e46497008054604051635ca4b5b160e11b8152600481018690526001600160a01b03858116602483015292935091169063b9496b62906044015f604051808303815f87803b15801561216d575f80fd5b505af115801561217f573d5f803e3d5ffd5b50505050505050565b5f8060205f8451602086015f885af1806121a7576040513d5f823e3d81fd5b50505f513d915081156121be5780600114156121cb565b6001600160a01b0384163b155b156121f457604051635274afe760e01b81526001600160a01b03851660048201526024016105dc565b50505050565b7f9e7b61f58c47dc699ac88507c4f5bb9f121c03808c5676a8078fe583e46497015460405163045fc19560e11b81525f917f9e7b61f58c47dc699ac88507c4f5bb9f121c03808c5676a8078fe583e4649700916001600160a01b03909116906308bf832a90612273908890339089908990600401612b71565b6020604051808303815f875af115801561228f573d5f803e3d5ffd5b505050506040513d601f19601f820116820180604052508101906122b39190612b5a565b8154604051630f8e573b60e21b8152600481018390523360248201529193506001600160a01b031690633e395cec906044015f604051808303815f87803b1580156122fc575f80fd5b505af115801561230e573d5f803e3d5ffd5b50505050509392505050565b5f80821561232d5750600160f81b612330565b505f5b5f7f9e7b61f58c47dc699ac88507c4f5bb9f121c03808c5676a8078fe583e4649700600181015460405163022f65e760e31b815260048101899052602481018890527fff00000000000000000000000000000000000000000000000000000000000000851660448201529192506001600160a01b03169063117b2f38906064016020604051808303815f875af11580156123cc573d5f803e3d5ffd5b505050506040513d601f19601f820116820180604052508101906123f09190612b5a565b9695505050505050565b6001600160a01b038116811461087e575f80fd5b5f806040838503121561241f575f80fd5b823591506020830135612431816123fa565b809150509250929050565b5f806040838503121561244d575f80fd5b50508035926020909101359150565b5f81518084525f5b8181101561248057602081850181015186830182015201612464565b505f602082860101526020601f19601f83011685010191505092915050565b5f60208083016020845280855180835260408601915060408160051b8701019250602087015f5b828110156124f457603f198886030184526124e285835161245c565b945092850192908501906001016124c6565b5092979650505050505050565b5f60208284031215612511575f80fd5b8135611819816123fa565b602081525f611819602083018461245c565b5f6020828403121561253e575f80fd5b5035919050565b5f8083601f840112612555575f80fd5b50813567ffffffffffffffff81111561256c575f80fd5b602083019150836020828501011115612583575f80fd5b9250929050565b5f8083601f84011261259a575f80fd5b50813567ffffffffffffffff8111156125b1575f80fd5b6020830191508360208260051b8501011115612583575f80fd5b803580151581146125da575f80fd5b919050565b5f805f805f805f805f805f60e08c8e0312156125f9575f80fd5b67ffffffffffffffff808d35111561260f575f80fd5b61261c8e8e358f01612545565b909c509a5060208d0135811015612631575f80fd5b6126418e60208f01358f01612545565b909a50985060408d0135811015612656575f80fd5b6126668e60408f01358f0161258a565b909850965060608d013581101561267b575f80fd5b5061268c8d60608e01358e0161258a565b909550935061269d60808d016125cb565b925060a08c0135915060c08c013590509295989b509295989b9093969950565b5f805f805f606086880312156126d1575f80fd5b85359450602086013567ffffffffffffffff808211156126ef575f80fd5b6126fb89838a01612545565b90965094506040880135915080821115612713575f80fd5b5061272088828901612545565b969995985093965092949392505050565b5f8060408385031215612742575f80fd5b823561274d816123fa565b946020939093013593505050565b5f805f806060858703121561276e575f80fd5b8435935060208501359250604085013567ffffffffffffffff811115612792575f80fd5b61279e87828801612545565b95989497509550505050565b5f805f606084860312156127bc575f80fd5b83356127c7816123fa565b95602085013595506040909401359392505050565b602080825282518282018190525f9190848201906040850190845b81811015612813578351835292840192918401916001016127f7565b50909695505050505050565b5f805f805f8060a08789031215612834575f80fd5b86359550602087013594506040870135935060608701359250608087013567ffffffffffffffff811115612866575f80fd5b61287289828a01612545565b979a9699509497509295939492505050565b634e487b7160e01b5f52603260045260245ffd5b600181811c908216806128ac57607f821691505b6020821081036128ca57634e487b7160e01b5f52602260045260245ffd5b50919050565b634e487b7160e01b5f52601160045260245ffd5b80820180821115610597576105976128d0565b634e487b7160e01b5f52604160045260245ffd5b601f82111561200257805f5260205f20601f840160051c810160208510156129305750805b601f840160051c820191505b8181101561294f575f815560010161293c565b5050505050565b67ffffffffffffffff83111561296e5761296e6128f7565b6129828361297c8354612898565b8361290b565b5f601f8411600181146129b3575f851561299c5750838201355b5f19600387901b1c1916600186901b17835561294f565b5f83815260208120601f198716915b828110156129e257868501358255602094850194600190920191016129c2565b50868210156129fe575f1960f88860031b161c19848701351681555b505060018560011b0183555050505050565b5f808335601e19843603018112612a25575f80fd5b83018035915067ffffffffffffffff821115612a3f575f80fd5b602001915036819003821315612583575f80fd5b815167ffffffffffffffff811115612a6d57612a6d6128f7565b612a8181612a7b8454612898565b8461290b565b602080601f831160018114612ab4575f8415612a9d5750858301515b5f19600386901b1c1916600185901b178555612b0b565b5f85815260208120601f198616915b82811015612ae257888601518255948401946001909101908401612ac3565b5085821015612aff57878501515f19600388901b60f8161c191681555b505060018460011b0185555b505050505050565b81810381811115610597576105976128d0565b60548110612b4257634e487b7160e01b5f52602160045260245ffd5b9052565b828152604081016118196020830184612b26565b5f60208284031215612b6a575f80fd5b5051919050565b8481526001600160a01b0384166020820152608060408201525f612b98608083018561245c565b9050612ba76060830184612b26565b9594505050505056fea164736f6c6343000818000a",
  "linkReferences": {},
  "deployedLinkReferences": {}
}