{
  "_format": "hh-sol-artifact-1",
  "contractName": "AnonymousPoll",
  "sourceName": "contracts/AnonymousPoll.sol",
  "abi": [
    {
      "inputs": [],
      "stateMutability": "nonpayable",
      "type": "constructor"
    },
    {
      "inputs": [
        {
          "internalType": "address",
          "name": "token",
          "type": "address"
        }
      ],
      "name": "SafeERC20FailedOperation",
      "type": "error"
    },
    {
      "anonymous": false,
      "inputs": [
        {
          "indexed": true,
          "internalType": "uint256",
          "name": "pollId",
          "type": "uint256"
        },
        {
          "indexed": true,
          "internalType": "bytes32",
          "name": "voterCommitment",
          "type": "bytes32"
        }
      ],
      "name": "CommentSubmitted",
      "type": "event"
    },
    {
      "anonymous": false,
      "inputs": [
        {
          "indexed": true,
          "internalType": "address",
          "name": "to",
          "type": "address"
        },
        {
          "indexed": false,
          "internalType": "uint256",
          "name": "amount",
          "type": "uint256"
        }
      ],
      "name": "FeesWithdrawn",
      "type": "event"
    },
    {
      "anonymous": false,
      "inputs": [
        {
          "indexed": true,
          "internalType": "address",
          "name": "previousOwner",
          "type": "address"
        },
        {
          "indexed": true,
          "internalType": "address",
          "name": "newOwner",
          "type": "address"
        }
      ],
      "name": "OwnershipTransferred",
      "type": "event"
    },
    {
      "anonymous": false,
      "inputs": [],
      "name": "Paused",
      "type": "event"
    },
    {
      "anonymous": false,
      "inputs": [
        {
          "indexed": true,
          "internalType": "uint256",
          "name": "pollId",
          "type": "uint256"
        }
      ],
      "name": "PollClosed",
      "type": "event"
    },
    {
      "anonymous": false,
      "inputs": [
        {
          "indexed": true,
          "internalType": "uint256",
          "name": "pollId",
          "type": "uint256"
        },
        {
          "indexed": true,
          "internalType": "address",
          "name": "creator",
          "type": "address"
        },
        {
          "indexed": false,
          "internalType": "bool",
          "name": "commentsAllowed",
          "type": "bool"
        }
      ],
      "name": "PollCreated",
      "type": "event"
    },
    {
      "anonymous": false,
      "inputs": [
        {
          "indexed": false,
          "internalType": "uint256",
          "name": "newFee",
          "type": "uint256"
        }
      ],
      "name": "PollCreationFeeUpdated",
      "type": "event"
    },
    {
      "anonymous": false,
      "inputs": [
        {
          "indexed": true,
          "internalType": "uint256",
          "name": "pollId",
          "type": "uint256"
        }
      ],
      "name": "PollMetadataUpdated",
      "type": "event"
    },
    {
      "anonymous": false,
      "inputs": [],
      "name": "Unpaused",
      "type": "event"
    },
    {
      "anonymous": false,
      "inputs": [
        {
          "indexed": true,
          "internalType": "uint256",
          "name": "pollId",
          "type": "uint256"
        },
        {
          "indexed": true,
          "internalType": "bytes32",
          "name": "voterCommitment",
          "type": "bytes32"
        },
        {
          "indexed": true,
          "internalType": "uint256",
          "name": "optionId",
          "type": "uint256"
        }
      ],
      "name": "VoteCast",
      "type": "event"
    },
    {
      "inputs": [
        {
          "internalType": "uint256",
          "name": "pollId",
          "type": "uint256"
        }
      ],
      "name": "closePoll",
      "outputs": [],
      "stateMutability": "nonpayable",
      "type": "function"
    },
    {
      "inputs": [],
      "name": "collectedFees",
      "outputs": [
        {
          "internalType": "uint256",
          "name": "",
          "type": "uint256"
        }
      ],
      "stateMutability": "view",
      "type": "function"
    },
    {
      "inputs": [
        {
          "internalType": "bytes",
          "name": "encryptedQuestion",
          "type": "bytes"
        },
        {
          "internalType": "string",
          "name": "questionImageCID",
          "type": "string"
        },
        {
          "internalType": "bytes[]",
          "name": "encryptedOptions",
          "type": "bytes[]"
        },
        {
          "internalType": "string[]",
          "name": "optionImageCIDs",
          "type": "string[]"
        },
        {
          "internalType": "bool",
          "name": "commentsAllowed",
          "type": "bool"
        },
        {
          "internalType": "uint256",
          "name": "startTime",
          "type": "uint256"
        },
        {
          "internalType": "uint256",
          "name": "endTime",
          "type": "uint256"
        }
      ],
      "name": "createPoll",
      "outputs": [
        {
          "internalType": "uint256",
          "name": "",
          "type": "uint256"
        }
      ],
      "stateMutability": "payable",
      "type": "function"
    },
    {
      "inputs": [
        {
          "internalType": "uint256",
          "name": "pollId",
          "type": "uint256"
        },
        {
          "internalType": "bytes32",
          "name": "voterCommitment",
          "type": "bytes32"
        }
      ],
      "name": "getEncryptedComments",
      "outputs": [
        {
          "internalType": "bytes[]",
          "name": "",
          "type": "bytes[]"
        }
      ],
      "stateMutability": "view",
      "type": "function"
    },
    {
      "inputs": [
        {
          "internalType": "uint256",
          "name": "pollId",
          "type": "uint256"
        },
        {
          "internalType": "uint256",
          "name": "optionId",
          "type": "uint256"
        }
      ],
      "name": "getEncryptedVoteCount",
      "outputs": [
        {
          "internalType": "euint64",
          "name": "",
          "type": "bytes32"
        }
      ],
      "stateMutability": "view",
      "type": "function"
    },
    {
      "inputs": [
        {
          "internalType": "uint256",
          "name": "pollId",
          "type": "uint256"
        }
      ],
      "name": "getPollSummary",
      "outputs": [
        {
          "internalType": "bool",
          "name": "isActive",
          "type": "bool"
        },
        {
          "internalType": "bool",
          "name": "commentsAllowed",
          "type": "bool"
        },
        {
          "internalType": "uint256",
          "name": "optionsCount",
          "type": "uint256"
        },
        {
          "internalType": "uint256",
          "name": "startTime",
          "type": "uint256"
        },
        {
          "internalType": "uint256",
          "name": "endTime",
          "type": "uint256"
        },
        {
          "internalType": "address",
          "name": "creator",
          "type": "address"
        }
      ],
      "stateMutability": "view",
      "type": "function"
    },
    {
      "inputs": [
        {
          "internalType": "address",
          "name": "creator",
          "type": "address"
        }
      ],
      "name": "getPollsByCreator",
      "outputs": [
        {
          "internalType": "uint256[]",
          "name": "",
          "type": "uint256[]"
        }
      ],
      "stateMutability": "view",
      "type": "function"
    },
    {
      "inputs": [
        {
          "internalType": "address",
          "name": "creator",
          "type": "address"
        },
        {
          "internalType": "uint256",
          "name": "start",
          "type": "uint256"
        },
        {
          "internalType": "uint256",
          "name": "count",
          "type": "uint256"
        }
      ],
      "name": "getPollsByCreatorPaged",
      "outputs": [
        {
          "internalType": "uint256[]",
          "name": "",
          "type": "uint256[]"
        }
      ],
      "stateMutability": "view",
      "type": "function"
    },
    {
      "inputs": [
        {
          "internalType": "uint256",
          "name": "pollId",
          "type": "uint256"
        },
        {
          "internalType": "address",
          "name": "user",
          "type": "address"
        }
      ],
      "name": "isPollCreator",
      "outputs": [
        {
          "internalType": "bool",
          "name": "",
          "type": "bool"
        }
      ],
      "stateMutability": "view",
      "type": "function"
    },
    {
      "inputs": [],
      "name": "owner",
      "outputs": [
        {
          "internalType": "address",
          "name": "",
          "type": "address"
        }
      ],
      "stateMutability": "view",
      "type": "function"
    },
    {
      "inputs": [],
      "name": "pause",
      "outputs": [],
      "stateMutability": "nonpayable",
      "type": "function"
    },
    {
      "inputs": [],
      "name": "paused",
      "outputs": [
        {
          "internalType": "bool",
          "name": "",
          "type": "bool"
        }
      ],
      "stateMutability": "view",
      "type": "function"
    },
    {
      "inputs": [],
      "name": "pollCreationFee",
      "outputs": [
        {
          "internalType": "uint256",
          "name": "",
          "type": "uint256"
        }
      ],
      "stateMutability": "view",
      "type": "function"
    },
    {
      "inputs": [
        {
          "internalType": "address",
          "name": "creator",
          "type": "address"
        }
      ],
      "name": "pollsByCreatorCount",
      "outputs": [
        {
          "internalType": "uint256",
          "name": "",
          "type": "uint256"
        }
      ],
      "stateMutability": "view",
      "type": "function"
    },
    {
      "inputs": [],
      "name": "protocolId",
      "outputs": [
        {
          "internalType": "uint256",
          "name": "",
          "type": "uint256"
        }
      ],
      "stateMutability": "view",
      "type": "function"
    },
    {
      "inputs": [
        {
          "internalType": "address",
          "name": "tokenAddress",
          "type": "address"
        },
        {
          "internalType": "uint256",
          "name": "amount",
          "type": "uint256"
        }
      ],
      "name": "recoverERC20",
      "outputs": [],
      "stateMutability": "nonpayable",
      "type": "function"
    },
    {
      "inputs": [],
      "name": "renounceOwnership",
      "outputs": [],
      "stateMutability": "nonpayable",
      "type": "function"
    },
    {
      "inputs": [
        {
          "internalType": "uint256",
          "name": "newFee",
          "type": "uint256"
        }
      ],
      "name": "setPollCreationFee",
      "outputs": [],
      "stateMutability": "nonpayable",
      "type": "function"
    },
    {
      "inputs": [
        {
          "internalType": "uint256",
          "name": "pollId",
          "type": "uint256"
        },
        {
          "internalType": "bytes32",
          "name": "voterCommitment",
          "type": "bytes32"
        },
        {
          "internalType": "bytes",
          "name": "encryptedComment",
          "type": "bytes"
        }
      ],
      "name": "submitComment",
      "outputs": [],
      "stateMutability": "nonpayable",
      "type": "function"
    },
    {
      "inputs": [],
      "name": "totalPolls",
      "outputs": [
        {
          "internalType": "uint256",
          "name": "",
          "type": "uint256"
        }
      ],
      "stateMutability": "view",
      "type": "function"
    },
    {
      "inputs": [
        {
          "internalType": "address",
          "name": "newOwner",
          "type": "address"
        }
      ],
      "name": "transferOwnership",
      "outputs": [],
      "stateMutability": "nonpayable",
      "type": "function"
    },
    {
      "inputs": [],
      "name": "unpause",
      "outputs": [],
      "stateMutability": "nonpayable",
      "type": "function"
    },
    {
      "inputs": [
        {
          "internalType": "uint256",
          "name": "pollId",
          "type": "uint256"
        },
        {
          "internalType": "bytes",
          "name": "newEncryptedQuestion",
          "type": "bytes"
        },
        {
          "internalType": "string",
          "name": "newQuestionImageCID",
          "type": "string"
        }
      ],
      "name": "updatePollMetadata",
      "outputs": [],
      "stateMutability": "nonpayable",
      "type": "function"
    },
    {
      "inputs": [
        {
          "internalType": "uint256",
          "name": "pollId",
          "type": "uint256"
        },
        {
          "internalType": "uint256",
          "name": "optionId",
          "type": "uint256"
        },
        {
          "internalType": "bytes32",
          "name": "voterCommitment",
          "type": "bytes32"
        },
        {
          "internalType": "externalEuint64",
          "name": "encryptedWeight",
          "type": "bytes32"
        },
        {
          "internalType": "bytes",
          "name": "inputProof",
          "type": "bytes"
        }
      ],
      "name": "vote",
      "outputs": [],
      "stateMutability": "nonpayable",
      "type": "function"
    },
    {
      "inputs": [
        {
          "internalType": "address payable",
          "name": "to",
          "type": "address"
        }
      ],
      "name": "withdrawFees",
      "outputs": [],
      "stateMutability": "nonpayable",
      "type": "function"
    }
  ],
  "bytecode": "0x608060405234801562000010575f80fd5b50466001036200010557620000ff6200005660408051606080820183525f8083526020808401829052928401819052835191820184528082529181018290529182015290565b80517f9e7b61f58c47dc699ac88507c4f5bb9f121c03808c5676a8078fe583e464970080546001600160a01b03199081166001600160a01b039384161790915560208301517f9e7b61f58c47dc699ac88507c4f5bb9f121c03808c5676a8078fe583e46497018054831691841691909117905560408301517f9e7b61f58c47dc699ac88507c4f5bb9f121c03808c5676a8078fe583e46497028054909216921691909117905550565b62000218565b4662aa36a7036200018f57620000ff62000056604080516060810182525f8082526020820181905291810191909152506040805160608101825273f0ffdc93b7e186bc2f8cb3daa75d86d1930a433d81527392c920834ec8941d2c77d188936e1f7a6f49c127602082015273be0e383937d564d7ff0bc3b46c51f0bf8d5c311a9181019190915290565b46617a690362000218576200021862000056604080516060810182525f8082526020820181905291810191909152506040805160608101825273f0ffdc93b7e186bc2f8cb3daa75d86d1930a433d81527392c920834ec8941d2c77d188936e1f7a6f49c127602082015273be0e383937d564d7ff0bc3b46c51f0bf8d5c311a9181019190915290565b5f80546001600160a01b0319163390811782556509184e72a0006001556040519091907f8be0079c531659141344cd1fd0a4f28419497f9722a3daafe3b4186f6b6457e0908290a36128c5806200026e5f395ff3fe60806040526004361061018e575f3560e01c80638da5cb5b116100dc578063b84ba93811610087578063f184bab111610062578063f184bab114610469578063f2fde38b14610488578063f8bff745146104a7578063fb790a32146104c6575f80fd5b8063b84ba93814610402578063c3ea296514610421578063da1f12ab14610455575f80fd5b80639534e637116100b75780639534e637146103a3578063a1ec699f146103c2578063a2eeeb2f146103ee575f80fd5b80638da5cb5b146103395780639003adfe1461036f578063907d64c914610384575f80fd5b80633f4ba83a1161013c57806378f26fea1161011757806378f26fea146102f35780638456cb59146103065780638980f11f1461031a575f80fd5b80633f4ba83a146102ac5780635c975abb146102c0578063715018a6146102df575f80fd5b80631e0412ab1161016c5780631e0412ab146102135780632ebaf777146102365780633a8642cf14610255575f80fd5b806301d0c6b01461019257806309c0abbc146101c6578063164e68de146101f2575b5f80fd5b34801561019d575f80fd5b506101b16101ac366004612128565b6104e5565b60405190151581526020015b60405180910390f35b3480156101d1575f80fd5b506101e56101e0366004612156565b61053a565b6040516101bd91906121b9565b3480156101fd575f80fd5b5061021161020c36600461221b565b610686565b005b34801561021e575f80fd5b5061022860015481565b6040519081526020016101bd565b348015610241575f80fd5b5061021161025036600461227b565b61080c565b348015610260575f80fd5b5061027461026f3660046122ef565b6109ce565b604080519615158752941515602087015293850192909252606084015260808301526001600160a01b031660a082015260c0016101bd565b3480156102b7575f80fd5b50610211610a82565b3480156102cb575f80fd5b505f546101b190600160a01b900460ff1681565b3480156102ea575f80fd5b50610211610afc565b61022861030136600461235b565b610b96565b348015610311575f80fd5b5061021161101d565b348015610325575f80fd5b50610211610334366004612439565b61109d565b348015610344575f80fd5b505f54610357906001600160a01b031681565b6040516001600160a01b0390911681526020016101bd565b34801561037a575f80fd5b5061022860025481565b34801561038f575f80fd5b5061021161039e366004612463565b6110fd565b3480156103ae575f80fd5b506102116103bd3660046122ef565b611406565b3480156103cd575f80fd5b506103e16103dc3660046124b2565b611538565b6040516101bd91906124e4565b3480156103f9575f80fd5b50600354610228565b34801561040d575f80fd5b5061021161041c366004612527565b61163d565b34801561042c575f80fd5b5061022861043b36600461221b565b6001600160a01b03165f9081526004602052604090205490565b348015610460575f80fd5b50610228611995565b348015610474575f80fd5b506102116104833660046122ef565b6119ca565b348015610493575f80fd5b506102116104a236600461221b565b611a4a565b3480156104b2575f80fd5b506102286104c1366004612156565b611b4b565b3480156104d1575f80fd5b506103e16104e036600461221b565b611c24565b6003545f9083106104f757505f610534565b816001600160a01b0316600384815481106105145761051461258c565b5f9182526020909120600660099092020101546001600160a01b03161490505b92915050565b60035460609083106105825760405162461bcd60e51b815260206004820152600c60248201526b125b9d985b1a59081c1bdb1b60a21b60448201526064015b60405180910390fd5b600383815481106105955761059561258c565b905f5260205f2090600902016005015f8381526020019081526020015f20805480602002602001604051908101604052809291908181526020015f905b8282101561067a578382905f5260205f200180546105ef906125a0565b80601f016020809104026020016040519081016040528092919081815260200182805461061b906125a0565b80156106665780601f1061063d57610100808354040283529160200191610666565b820191905f5260205f20905b81548152906001019060200180831161064957829003601f168201915b5050505050815260200190600101906105d2565b50505050905092915050565b5f546001600160a01b031633146106cb5760405162461bcd60e51b81526020600482015260096024820152682737ba1037bbb732b960b91b6044820152606401610579565b5f6002541161071c5760405162461bcd60e51b815260206004820152600760248201527f4e6f2066656573000000000000000000000000000000000000000000000000006044820152606401610579565b600280545f918290556040519091906001600160a01b0384169083908381818185875af1925050503d805f811461076e576040519150601f19603f3d011682016040523d82523d5f602084013e610773565b606091505b50509050806107c45760405162461bcd60e51b815260206004820152600f60248201527f5769746864726177206661696c656400000000000000000000000000000000006044820152606401610579565b826001600160a01b03167fc0819c13be868895eb93e40eaceb96de976442fa1d404e5c55f14bb65a8c489a836040516107ff91815260200190565b60405180910390a2505050565b6003548590811080156108555750336001600160a01b0316600382815481106108375761083761258c565b5f9182526020909120600660099092020101546001600160a01b0316145b6108925760405162461bcd60e51b815260206004820152600e60248201526d139bdd08185d5d1a1bdc9a5e995960921b6044820152606401610579565b6003548690811080156108d15750600381815481106108b3576108b361258c565b905f5260205f20906009020160060160149054906101000a900460ff165b61090d5760405162461bcd60e51b815260206004820152600d60248201526c506f6c6c20696e61637469766560981b6044820152606401610579565b5f54600160a01b900460ff16156109585760405162461bcd60e51b815260206004820152600f60248201526e10dbdb9d1c9858dd081c185d5cd959608a1b6044820152606401610579565b5f6003888154811061096c5761096c61258c565b5f9182526020909120600990910201905080610989878983612637565b5060018101610999858783612637565b5060405188907fc6cdd79eae1885b2d966153463ed04a1e42010a0d3a63d8dd28f9e676cb237c1905f90a25050505050505050565b5f805f805f806003805490508710610a175760405162461bcd60e51b815260206004820152600c60248201526b125b9d985b1a59081c1bdb1b60a21b6044820152606401610579565b5f60038881548110610a2b57610a2b61258c565b5f9182526020909120600990910201600681015460028201546007830154600890930154600160a01b830460ff9081169d600160a81b85049091169c50919a509298509196506001600160a01b0316945092505050565b5f546001600160a01b03163314610ac75760405162461bcd60e51b81526020600482015260096024820152682737ba1037bbb732b960b91b6044820152606401610579565b5f805460ff60a01b191681556040517fa45f47fdea8a1efdd9029a5691c7f759c32b7c698632b563573e155625d169339190a1565b5f546001600160a01b03163314610b415760405162461bcd60e51b81526020600482015260096024820152682737ba1037bbb732b960b91b6044820152606401610579565b5f80546040516001600160a01b03909116907f8be0079c531659141344cd1fd0a4f28419497f9722a3daafe3b4186f6b6457e0908390a35f805473ffffffffffffffffffffffffffffffffffffffff19169055565b5f8054600160a01b900460ff1615610be25760405162461bcd60e51b815260206004820152600f60248201526e10dbdb9d1c9858dd081c185d5cd959608a1b6044820152606401610579565b6001543414610c335760405162461bcd60e51b815260206004820152600d60248201527f496e636f727265637420666565000000000000000000000000000000000000006044820152606401610579565b868514610c825760405162461bcd60e51b815260206004820152601060248201527f4f7074696f6e73206d69736d61746368000000000000000000000000000000006044820152606401610579565b6002871015610cd35760405162461bcd60e51b815260206004820152601760248201527f4e656564206174206c656173742032206f7074696f6e730000000000000000006044820152606401610579565b818310610d225760405162461bcd60e51b815260206004820152601160248201527f496e76616c696420706f6c6c2074696d650000000000000000000000000000006044820152606401610579565b42831015610d725760405162461bcd60e51b815260206004820152601260248201527f53746172742074696d6520696e207061737400000000000000000000000000006044820152606401610579565b3460025f828254610d839190612705565b909155505060038054600181018083555f83815291929083908110610daa57610daa61258c565b905f5260205f209060090201905033816006015f6101000a8154816001600160a01b0302191690836001600160a01b031602179055508d8d825f019182610df2929190612637565b5060018101610e028c8e83612637565b50600681018054871515600160a81b027fffffffffffffffffffff0000ffffffffffffffffffffffffffffffffffffffff90911617600160a01b17905560078101859055600881018490555f5b89811015610fab578160020160405180606001604052808d8d85818110610e7857610e7861258c565b9050602002810190610e8a9190612718565b8080601f0160208091040260200160405190810160405280939291908181526020018383808284375f920191909152505050908252506020018b8b85818110610ed557610ed561258c565b9050602002810190610ee79190612718565b8080601f0160208091040260200160405190810160405280939291908181526020018383808284375f920182905250938552505060209092019150610f2b90611c8d565b905281546001810183555f92835260209092208151919260030201908190610f53908261275b565b5060208201516001820190610f68908261275b565b50604082015181600201555050610fa2826002018281548110610f8d57610f8d61258c565b905f5260205f20906003020160020154611ca3565b50600101610e4f565b50335f818152600460209081526040808320805460018101825590845291909220018490555183907faadd42136a8af4abe3fe4fd783fd11cd4343386418392c4808d02769696fe16b90611004908a1515815260200190565b60405180910390a3509c9b505050505050505050505050565b5f546001600160a01b031633146110625760405162461bcd60e51b81526020600482015260096024820152682737ba1037bbb732b960b91b6044820152606401610579565b5f805460ff60a01b1916600160a01b1781556040517f9e87fac88ff661f02d44f95383c817fece4bce600a3dab7a54406878b965e7529190a1565b5f546001600160a01b031633146110e25760405162461bcd60e51b81526020600482015260096024820152682737ba1037bbb732b960b91b6044820152606401610579565b5f546110f99083906001600160a01b031683611cb2565b5050565b60035484908110801561113c57506003818154811061111e5761111e61258c565b905f5260205f20906009020160060160149054906101000a900460ff165b6111785760405162461bcd60e51b815260206004820152600d60248201526c506f6c6c20696e61637469766560981b6044820152606401610579565b600354859081106111ba5760405162461bcd60e51b815260206004820152600c60248201526b125b9d985b1a59081c1bdb1b60a21b6044820152606401610579565b5f600382815481106111ce576111ce61258c565b905f5260205f2090600902019050806007015442101580156111f4575080600801544211155b61122e5760405162461bcd60e51b815260206004820152600b60248201526a141bdb1b0818db1bdcd95960aa1b6044820152606401610579565b5f54600160a01b900460ff16156112795760405162461bcd60e51b815260206004820152600f60248201526e10dbdb9d1c9858dd081c185d5cd959608a1b6044820152606401610579565b5f6003888154811061128d5761128d61258c565b905f5260205f20906009020190508060060160159054906101000a900460ff166112f95760405162461bcd60e51b815260206004820152601160248201527f436f6d6d656e74732064697361626c65640000000000000000000000000000006044820152606401610579565b5f87815260038201602052604090205460ff166113585760405162461bcd60e51b815260206004820152601460248201527f4d75737420766f746520746f20636f6d6d656e740000000000000000000000006044820152606401610579565b846113a55760405162461bcd60e51b815260206004820152600d60248201527f456d70747920636f6d6d656e74000000000000000000000000000000000000006044820152606401610579565b5f8781526005820160209081526040822080546001810182559083529120016113cf868883612637565b50604051879089907fb8fe06349d3a916b63b8f6b5be836cedb7abc599b2b06ce42fde34dc927d12cc905f90a35050505050505050565b60035481908110801561144f5750336001600160a01b0316600382815481106114315761143161258c565b5f9182526020909120600660099092020101546001600160a01b0316145b61148c5760405162461bcd60e51b815260206004820152600e60248201526d139bdd08185d5d1a1bdc9a5e995960921b6044820152606401610579565b60035482106114cc5760405162461bcd60e51b815260206004820152600c60248201526b125b9d985b1a59081c1bdb1b60a21b6044820152606401610579565b5f600383815481106114e0576114e061258c565b5f918252602082206006600990920201018054921515600160a01b0260ff60a01b199093169290921790915560405183917f703c67c157a1afb7d386ce5212ee88bf0a690bca998060e9595ebdfd747100ce91a25050565b6001600160a01b0383165f908152600460205260409020805460609190808510611573575050604080515f8152602081019091529050611636565b5f61157e8587612705565b90508181111561158b5750805b5f611596878361281b565b67ffffffffffffffff8111156115ae576115ae6125d8565b6040519080825280602002602001820160405280156115d7578160200160208202803683370190505b509050865b8281101561162f578481815481106115f6576115f661258c565b905f5260205f20015482898361160c919061281b565b8151811061161c5761161c61258c565b60209081029190910101526001016115dc565b5093505050505b9392505050565b60035486908110801561167c57506003818154811061165e5761165e61258c565b905f5260205f20906009020160060160149054906101000a900460ff165b6116b85760405162461bcd60e51b815260206004820152600d60248201526c506f6c6c20696e61637469766560981b6044820152606401610579565b600354879081106116fa5760405162461bcd60e51b815260206004820152600c60248201526b125b9d985b1a59081c1bdb1b60a21b6044820152606401610579565b5f6003828154811061170e5761170e61258c565b905f5260205f209060090201905080600701544210158015611734575080600801544211155b61176e5760405162461bcd60e51b815260206004820152600b60248201526a141bdb1b0818db1bdcd95960aa1b6044820152606401610579565b5f54600160a01b900460ff16156117b95760405162461bcd60e51b815260206004820152600f60248201526e10dbdb9d1c9858dd081c185d5cd959608a1b6044820152606401610579565b5f60038a815481106117cd576117cd61258c565b5f91825260208083208b84526003600990930201918201905260409091205490915060ff161561183f5760405162461bcd60e51b815260206004820152600d60248201527f416c726561647920766f746564000000000000000000000000000000000000006044820152606401610579565b600281015489106118835760405162461bcd60e51b815260206004820152600e60248201526d24b73b30b634b21037b83a34b7b760911b6044820152606401610579565b5f6118c38888888080601f0160208091040260200160405190810160405280939291908181526020018383808284375f92019190915250611d1e92505050565b90506118f3826002018b815481106118dd576118dd61258c565b905f5260205f2090600302016002015482611d2b565b826002018b815481106119085761190861258c565b905f5260205f20906003020160020181905550611933826002018b81548110610f8d57610f8d61258c565b505f8981526003830160209081526040808320805460ff1916600117905560048501909152808220839055518b918b918e917f2d5d5adff759341f1e2cc20cd5f911101d22fae5437742e48892ad7c1fd5316b91a45050505050505050505050565b5f466001036119a45750600190565b4662aa36a7036119b5575061271190565b46617a69036119c5575061271190565b505f90565b5f546001600160a01b03163314611a0f5760405162461bcd60e51b81526020600482015260096024820152682737ba1037bbb732b960b91b6044820152606401610579565b60018190556040518181527f1499e5b3a0b119753a11e121619d27fa8ebff5024a607ea6f4a5e10f716edae29060200160405180910390a150565b5f546001600160a01b03163314611a8f5760405162461bcd60e51b81526020600482015260096024820152682737ba1037bbb732b960b91b6044820152606401610579565b6001600160a01b038116611ae55760405162461bcd60e51b815260206004820152600e60248201527f4e6577206f776e6572207a65726f0000000000000000000000000000000000006044820152606401610579565b5f80546040516001600160a01b03808516939216917f8be0079c531659141344cd1fd0a4f28419497f9722a3daafe3b4186f6b6457e091a35f805473ffffffffffffffffffffffffffffffffffffffff19166001600160a01b0392909216919091179055565b6003545f908310611b8d5760405162461bcd60e51b815260206004820152600c60248201526b125b9d985b1a59081c1bdb1b60a21b6044820152606401610579565b5f60038481548110611ba157611ba161258c565b905f5260205f209060090201905080600201805490508310611bf65760405162461bcd60e51b815260206004820152600e60248201526d24b73b30b634b21037b83a34b7b760911b6044820152606401610579565b806002018381548110611c0b57611c0b61258c565b905f5260205f2090600302016002015491505092915050565b6001600160a01b0381165f90815260046020908152604091829020805483518184028101840190945280845260609392830182828015611c8157602002820191905f5260205f20905b815481526020019060010190808311611c6d575b50505050509050919050565b5f6105348267ffffffffffffffff166005611d59565b5f611cae8230611e16565b5090565b604080516001600160a01b038416602482015260448082018490528251808303909101815260649091019091526020810180517bffffffffffffffffffffffffffffffffffffffffffffffffffffffff1663a9059cbb60e01b179052611d19908490611e9f565b505050565b5f61163683836005611f11565b5f82611d3d57611d3a5f611c8d565b92505b81611d4e57611d4b5f611c8d565b91505b61163683835f612031565b7f9e7b61f58c47dc699ac88507c4f5bb9f121c03808c5676a8078fe583e464970154604051639cd07acb60e01b81525f917f9e7b61f58c47dc699ac88507c4f5bb9f121c03808c5676a8078fe583e4649700916001600160a01b0390911690639cd07acb90611dce908790879060040161284e565b6020604051808303815f875af1158015611dea573d5f803e3d5ffd5b505050506040513d601f19601f82011682018060405250810190611e0e9190612862565b949350505050565b5f7f9e7b61f58c47dc699ac88507c4f5bb9f121c03808c5676a8078fe583e46497008054604051635ca4b5b160e11b8152600481018690526001600160a01b03858116602483015292935091169063b9496b62906044015f604051808303815f87803b158015611e84575f80fd5b505af1158015611e96573d5f803e3d5ffd5b50505050505050565b5f8060205f8451602086015f885af180611ebe576040513d5f823e3d81fd5b50505f513d91508115611ed5578060011415611ee2565b6001600160a01b0384163b155b15611f0b57604051635274afe760e01b81526001600160a01b0385166004820152602401610579565b50505050565b7f9e7b61f58c47dc699ac88507c4f5bb9f121c03808c5676a8078fe583e46497015460405163045fc19560e11b81525f917f9e7b61f58c47dc699ac88507c4f5bb9f121c03808c5676a8078fe583e4649700916001600160a01b03909116906308bf832a90611f8a908890339089908990600401612879565b6020604051808303815f875af1158015611fa6573d5f803e3d5ffd5b505050506040513d601f19601f82011682018060405250810190611fca9190612862565b8154604051630f8e573b60e21b8152600481018390523360248201529193506001600160a01b031690633e395cec906044015f604051808303815f87803b158015612013575f80fd5b505af1158015612025573d5f803e3d5ffd5b50505050509392505050565b5f8082156120445750600160f81b612047565b505f5b5f7f9e7b61f58c47dc699ac88507c4f5bb9f121c03808c5676a8078fe583e4649700600181015460405163022f65e760e31b815260048101899052602481018890527fff00000000000000000000000000000000000000000000000000000000000000851660448201529192506001600160a01b03169063117b2f38906064016020604051808303815f875af11580156120e3573d5f803e3d5ffd5b505050506040513d601f19601f820116820180604052508101906121079190612862565b9695505050505050565b6001600160a01b0381168114612125575f80fd5b50565b5f8060408385031215612139575f80fd5b82359150602083013561214b81612111565b809150509250929050565b5f8060408385031215612167575f80fd5b50508035926020909101359150565b5f81518084525f5b8181101561219a5760208185018101518683018201520161217e565b505f602082860101526020601f19601f83011685010191505092915050565b5f60208083016020845280855180835260408601915060408160051b8701019250602087015f5b8281101561220e57603f198886030184526121fc858351612176565b945092850192908501906001016121e0565b5092979650505050505050565b5f6020828403121561222b575f80fd5b813561163681612111565b5f8083601f840112612246575f80fd5b50813567ffffffffffffffff81111561225d575f80fd5b602083019150836020828501011115612274575f80fd5b9250929050565b5f805f805f6060868803121561228f575f80fd5b85359450602086013567ffffffffffffffff808211156122ad575f80fd5b6122b989838a01612236565b909650945060408801359150808211156122d1575f80fd5b506122de88828901612236565b969995985093965092949392505050565b5f602082840312156122ff575f80fd5b5035919050565b5f8083601f840112612316575f80fd5b50813567ffffffffffffffff81111561232d575f80fd5b6020830191508360208260051b8501011115612274575f80fd5b80358015158114612356575f80fd5b919050565b5f805f805f805f805f805f60e08c8e031215612375575f80fd5b67ffffffffffffffff808d35111561238b575f80fd5b6123988e8e358f01612236565b909c509a5060208d01358110156123ad575f80fd5b6123bd8e60208f01358f01612236565b909a50985060408d01358110156123d2575f80fd5b6123e28e60408f01358f01612306565b909850965060608d01358110156123f7575f80fd5b506124088d60608e01358e01612306565b909550935061241960808d01612347565b925060a08c0135915060c08c013590509295989b509295989b9093969950565b5f806040838503121561244a575f80fd5b823561245581612111565b946020939093013593505050565b5f805f8060608587031215612476575f80fd5b8435935060208501359250604085013567ffffffffffffffff81111561249a575f80fd5b6124a687828801612236565b95989497509550505050565b5f805f606084860312156124c4575f80fd5b83356124cf81612111565b95602085013595506040909401359392505050565b602080825282518282018190525f9190848201906040850190845b8181101561251b578351835292840192918401916001016124ff565b50909695505050505050565b5f805f805f8060a0878903121561253c575f80fd5b86359550602087013594506040870135935060608701359250608087013567ffffffffffffffff81111561256e575f80fd5b61257a89828a01612236565b979a9699509497509295939492505050565b634e487b7160e01b5f52603260045260245ffd5b600181811c908216806125b457607f821691505b6020821081036125d257634e487b7160e01b5f52602260045260245ffd5b50919050565b634e487b7160e01b5f52604160045260245ffd5b601f821115611d1957805f5260205f20601f840160051c810160208510156126115750805b601f840160051c820191505b81811015612630575f815560010161261d565b5050505050565b67ffffffffffffffff83111561264f5761264f6125d8565b6126638361265d83546125a0565b836125ec565b5f601f841160018114612694575f851561267d5750838201355b5f19600387901b1c1916600186901b178355612630565b5f83815260208120601f198716915b828110156126c357868501358255602094850194600190920191016126a3565b50868210156126df575f1960f88860031b161c19848701351681555b505060018560011b0183555050505050565b634e487b7160e01b5f52601160045260245ffd5b80820180821115610534576105346126f1565b5f808335601e1984360301811261272d575f80fd5b83018035915067ffffffffffffffff821115612747575f80fd5b602001915036819003821315612274575f80fd5b815167ffffffffffffffff811115612775576127756125d8565b6127898161278384546125a0565b846125ec565b602080601f8311600181146127bc575f84156127a55750858301515b5f19600386901b1c1916600185901b178555612813565b5f85815260208120601f198616915b828110156127ea578886015182559484019460019091019084016127cb565b508582101561280757878501515f19600388901b60f8161c191681555b505060018460011b0185555b505050505050565b81810381811115610534576105346126f1565b6054811061284a57634e487b7160e01b5f52602160045260245ffd5b9052565b82815260408101611636602083018461282e565b5f60208284031215612872575f80fd5b5051919050565b8481526001600160a01b0384166020820152608060408201525f6128a06080830185612176565b90506128af606083018461282e565b9594505050505056fea164736f6c6343000818000a",
  "linkReferences": {},
  "deployedLinkReferences": {}
}