{
  "_format": "hh-sol-artifact-1",
  "contractName": "AnonymousPoll",
  "sourceName": "contracts/AnonymousPoll.sol",
  "abi": [
    {
      "inputs": [],
      "stateMutability": "nonpayable",
      "type": "constructor"
    },
    {
      "inputs": [],
      "name": "ReentrancyGuardReentrantCall",
      "type": "error"
    },
    {
      "inputs": [
        {
          "internalType": "address",
          "name": "token",
          "type": "address"
        }
      ],
      "name": "SafeERC20FailedOperation",
      "type": "error"
    },
    {
      "anonymous": false,
      "inputs": [
        {
          "indexed": true,
          "internalType": "uint256",
          "name": "pollId",
          "type": "uint256"
        },
        {
          "indexed": true,
          "internalType": "bytes32",
          "name": "voterCommitment",
          "type": "bytes32"
        }
      ],
      "name": "CommentSubmitted",
      "type": "event"
    },
    {
      "anonymous": false,
      "inputs": [
        {
          "indexed": true,
          "internalType": "uint256",
          "name": "pollId",
          "type": "uint256"
        },
        {
          "indexed": true,
          "internalType": "uint256",
          "name": "optionId",
          "type": "uint256"
        },
        {
          "indexed": false,
          "internalType": "euint64",
          "name": "encryptedVoteCount",
          "type": "bytes32"
        }
      ],
      "name": "EncryptedVoteCountForReveal",
      "type": "event"
    },
    {
      "anonymous": false,
      "inputs": [
        {
          "indexed": true,
          "internalType": "address",
          "name": "to",
          "type": "address"
        },
        {
          "indexed": false,
          "internalType": "uint256",
          "name": "amount",
          "type": "uint256"
        }
      ],
      "name": "FeesWithdrawn",
      "type": "event"
    },
    {
      "anonymous": false,
      "inputs": [
        {
          "indexed": true,
          "internalType": "address",
          "name": "previousOwner",
          "type": "address"
        },
        {
          "indexed": true,
          "internalType": "address",
          "name": "newOwner",
          "type": "address"
        }
      ],
      "name": "OwnershipTransferred",
      "type": "event"
    },
    {
      "anonymous": false,
      "inputs": [],
      "name": "Paused",
      "type": "event"
    },
    {
      "anonymous": false,
      "inputs": [
        {
          "indexed": true,
          "internalType": "uint256",
          "name": "pollId",
          "type": "uint256"
        }
      ],
      "name": "PollClosed",
      "type": "event"
    },
    {
      "anonymous": false,
      "inputs": [
        {
          "indexed": true,
          "internalType": "uint256",
          "name": "pollId",
          "type": "uint256"
        },
        {
          "indexed": true,
          "internalType": "address",
          "name": "creator",
          "type": "address"
        },
        {
          "indexed": false,
          "internalType": "bool",
          "name": "commentsAllowed",
          "type": "bool"
        }
      ],
      "name": "PollCreated",
      "type": "event"
    },
    {
      "anonymous": false,
      "inputs": [
        {
          "indexed": false,
          "internalType": "uint256",
          "name": "newFee",
          "type": "uint256"
        }
      ],
      "name": "PollCreationFeeUpdated",
      "type": "event"
    },
    {
      "anonymous": false,
      "inputs": [
        {
          "indexed": true,
          "internalType": "uint256",
          "name": "pollId",
          "type": "uint256"
        }
      ],
      "name": "PollMetadataUpdated",
      "type": "event"
    },
    {
      "anonymous": false,
      "inputs": [],
      "name": "Unpaused",
      "type": "event"
    },
    {
      "anonymous": false,
      "inputs": [
        {
          "indexed": true,
          "internalType": "uint256",
          "name": "pollId",
          "type": "uint256"
        },
        {
          "indexed": true,
          "internalType": "bytes32",
          "name": "voterCommitment",
          "type": "bytes32"
        },
        {
          "indexed": true,
          "internalType": "uint256",
          "name": "optionId",
          "type": "uint256"
        }
      ],
      "name": "VoteCast",
      "type": "event"
    },
    {
      "anonymous": false,
      "inputs": [
        {
          "indexed": true,
          "internalType": "uint256",
          "name": "pollId",
          "type": "uint256"
        }
      ],
      "name": "VotesRevealed",
      "type": "event"
    },
    {
      "inputs": [],
      "name": "MAX_COMMENTS_PER_USER",
      "outputs": [
        {
          "internalType": "uint256",
          "name": "",
          "type": "uint256"
        }
      ],
      "stateMutability": "view",
      "type": "function"
    },
    {
      "inputs": [],
      "name": "MAX_OPTIONS",
      "outputs": [
        {
          "internalType": "uint256",
          "name": "",
          "type": "uint256"
        }
      ],
      "stateMutability": "view",
      "type": "function"
    },
    {
      "inputs": [
        {
          "internalType": "uint256",
          "name": "pollId",
          "type": "uint256"
        }
      ],
      "name": "closePoll",
      "outputs": [],
      "stateMutability": "nonpayable",
      "type": "function"
    },
    {
      "inputs": [],
      "name": "collectedFees",
      "outputs": [
        {
          "internalType": "uint256",
          "name": "",
          "type": "uint256"
        }
      ],
      "stateMutability": "view",
      "type": "function"
    },
    {
      "inputs": [
        {
          "internalType": "externalEuint256",
          "name": "encryptedQuestion",
          "type": "bytes32"
        },
        {
          "internalType": "externalEuint256",
          "name": "encryptedQuestionImageCID",
          "type": "bytes32"
        },
        {
          "internalType": "externalEuint256[]",
          "name": "encryptedOptions",
          "type": "bytes32[]"
        },
        {
          "internalType": "externalEuint256[]",
          "name": "encryptedOptionImageCIDs",
          "type": "bytes32[]"
        },
        {
          "internalType": "bytes",
          "name": "inputProof",
          "type": "bytes"
        },
        {
          "internalType": "bool",
          "name": "commentsAllowed",
          "type": "bool"
        },
        {
          "internalType": "uint256",
          "name": "startTime",
          "type": "uint256"
        },
        {
          "internalType": "uint256",
          "name": "endTime",
          "type": "uint256"
        }
      ],
      "name": "createPoll",
      "outputs": [
        {
          "internalType": "uint256",
          "name": "",
          "type": "uint256"
        }
      ],
      "stateMutability": "payable",
      "type": "function"
    },
    {
      "inputs": [
        {
          "internalType": "uint256",
          "name": "pollId",
          "type": "uint256"
        },
        {
          "internalType": "bytes32",
          "name": "voterCommitment",
          "type": "bytes32"
        },
        {
          "internalType": "uint256",
          "name": "commentIndex",
          "type": "uint256"
        }
      ],
      "name": "getEncryptedComment",
      "outputs": [
        {
          "internalType": "euint256",
          "name": "",
          "type": "bytes32"
        }
      ],
      "stateMutability": "view",
      "type": "function"
    },
    {
      "inputs": [
        {
          "internalType": "uint256",
          "name": "pollId",
          "type": "uint256"
        },
        {
          "internalType": "bytes32",
          "name": "voterCommitment",
          "type": "bytes32"
        }
      ],
      "name": "getEncryptedCommentsCount",
      "outputs": [
        {
          "internalType": "uint256",
          "name": "",
          "type": "uint256"
        }
      ],
      "stateMutability": "view",
      "type": "function"
    },
    {
      "inputs": [
        {
          "internalType": "uint256",
          "name": "pollId",
          "type": "uint256"
        },
        {
          "internalType": "uint256",
          "name": "optionId",
          "type": "uint256"
        }
      ],
      "name": "getEncryptedOption",
      "outputs": [
        {
          "internalType": "euint256",
          "name": "",
          "type": "bytes32"
        }
      ],
      "stateMutability": "view",
      "type": "function"
    },
    {
      "inputs": [
        {
          "internalType": "uint256",
          "name": "pollId",
          "type": "uint256"
        }
      ],
      "name": "getEncryptedQuestion",
      "outputs": [
        {
          "internalType": "euint256",
          "name": "",
          "type": "bytes32"
        }
      ],
      "stateMutability": "view",
      "type": "function"
    },
    {
      "inputs": [
        {
          "internalType": "uint256",
          "name": "pollId",
          "type": "uint256"
        }
      ],
      "name": "getEncryptedQuestionImageCID",
      "outputs": [
        {
          "internalType": "euint256",
          "name": "",
          "type": "bytes32"
        }
      ],
      "stateMutability": "view",
      "type": "function"
    },
    {
      "inputs": [
        {
          "internalType": "uint256",
          "name": "pollId",
          "type": "uint256"
        },
        {
          "internalType": "uint256",
          "name": "optionId",
          "type": "uint256"
        }
      ],
      "name": "getEncryptedVoteCount",
      "outputs": [
        {
          "internalType": "euint64",
          "name": "",
          "type": "bytes32"
        }
      ],
      "stateMutability": "view",
      "type": "function"
    },
    {
      "inputs": [
        {
          "internalType": "uint256",
          "name": "pollId",
          "type": "uint256"
        },
        {
          "internalType": "uint256",
          "name": "optionId",
          "type": "uint256"
        }
      ],
      "name": "getOptionEncryptedImageCID",
      "outputs": [
        {
          "internalType": "euint256",
          "name": "",
          "type": "bytes32"
        }
      ],
      "stateMutability": "view",
      "type": "function"
    },
    {
      "inputs": [
        {
          "internalType": "uint256",
          "name": "pollId",
          "type": "uint256"
        }
      ],
      "name": "getPollSummary",
      "outputs": [
        {
          "internalType": "bool",
          "name": "isActive",
          "type": "bool"
        },
        {
          "internalType": "bool",
          "name": "revealed",
          "type": "bool"
        },
        {
          "internalType": "bool",
          "name": "commentsAllowed",
          "type": "bool"
        },
        {
          "internalType": "uint256",
          "name": "optionsCount",
          "type": "uint256"
        },
        {
          "internalType": "uint256",
          "name": "startTime",
          "type": "uint256"
        },
        {
          "internalType": "uint256",
          "name": "endTime",
          "type": "uint256"
        },
        {
          "internalType": "address",
          "name": "creator",
          "type": "address"
        }
      ],
      "stateMutability": "view",
      "type": "function"
    },
    {
      "inputs": [
        {
          "internalType": "address",
          "name": "creator",
          "type": "address"
        }
      ],
      "name": "getPollsByCreator",
      "outputs": [
        {
          "internalType": "uint256[]",
          "name": "",
          "type": "uint256[]"
        }
      ],
      "stateMutability": "view",
      "type": "function"
    },
    {
      "inputs": [
        {
          "internalType": "address",
          "name": "creator",
          "type": "address"
        },
        {
          "internalType": "uint256",
          "name": "start",
          "type": "uint256"
        },
        {
          "internalType": "uint256",
          "name": "count",
          "type": "uint256"
        }
      ],
      "name": "getPollsByCreatorPaged",
      "outputs": [
        {
          "internalType": "uint256[]",
          "name": "",
          "type": "uint256[]"
        }
      ],
      "stateMutability": "view",
      "type": "function"
    },
    {
      "inputs": [
        {
          "internalType": "uint256",
          "name": "pollId",
          "type": "uint256"
        },
        {
          "internalType": "uint256",
          "name": "optionId",
          "type": "uint256"
        }
      ],
      "name": "getRevealedVoteCount",
      "outputs": [
        {
          "internalType": "uint64",
          "name": "",
          "type": "uint64"
        }
      ],
      "stateMutability": "view",
      "type": "function"
    },
    {
      "inputs": [
        {
          "internalType": "uint256",
          "name": "pollId",
          "type": "uint256"
        },
        {
          "internalType": "address",
          "name": "user",
          "type": "address"
        }
      ],
      "name": "isPollCreator",
      "outputs": [
        {
          "internalType": "bool",
          "name": "",
          "type": "bool"
        }
      ],
      "stateMutability": "view",
      "type": "function"
    },
    {
      "inputs": [],
      "name": "owner",
      "outputs": [
        {
          "internalType": "address",
          "name": "",
          "type": "address"
        }
      ],
      "stateMutability": "view",
      "type": "function"
    },
    {
      "inputs": [],
      "name": "pause",
      "outputs": [],
      "stateMutability": "nonpayable",
      "type": "function"
    },
    {
      "inputs": [],
      "name": "paused",
      "outputs": [
        {
          "internalType": "bool",
          "name": "",
          "type": "bool"
        }
      ],
      "stateMutability": "view",
      "type": "function"
    },
    {
      "inputs": [],
      "name": "pollCreationFee",
      "outputs": [
        {
          "internalType": "uint256",
          "name": "",
          "type": "uint256"
        }
      ],
      "stateMutability": "view",
      "type": "function"
    },
    {
      "inputs": [
        {
          "internalType": "address",
          "name": "creator",
          "type": "address"
        }
      ],
      "name": "pollsByCreatorCount",
      "outputs": [
        {
          "internalType": "uint256",
          "name": "",
          "type": "uint256"
        }
      ],
      "stateMutability": "view",
      "type": "function"
    },
    {
      "inputs": [],
      "name": "protocolId",
      "outputs": [
        {
          "internalType": "uint256",
          "name": "",
          "type": "uint256"
        }
      ],
      "stateMutability": "view",
      "type": "function"
    },
    {
      "inputs": [
        {
          "internalType": "address",
          "name": "tokenAddress",
          "type": "address"
        },
        {
          "internalType": "uint256",
          "name": "amount",
          "type": "uint256"
        }
      ],
      "name": "recoverERC20",
      "outputs": [],
      "stateMutability": "nonpayable",
      "type": "function"
    },
    {
      "inputs": [
        {
          "internalType": "address payable",
          "name": "to",
          "type": "address"
        }
      ],
      "name": "recoverStuckETH",
      "outputs": [],
      "stateMutability": "nonpayable",
      "type": "function"
    },
    {
      "inputs": [],
      "name": "renounceOwnership",
      "outputs": [],
      "stateMutability": "nonpayable",
      "type": "function"
    },
    {
      "inputs": [
        {
          "internalType": "uint256",
          "name": "pollId",
          "type": "uint256"
        }
      ],
      "name": "revealVoteCounts",
      "outputs": [],
      "stateMutability": "nonpayable",
      "type": "function"
    },
    {
      "inputs": [
        {
          "internalType": "uint256",
          "name": "newFee",
          "type": "uint256"
        }
      ],
      "name": "setPollCreationFee",
      "outputs": [],
      "stateMutability": "nonpayable",
      "type": "function"
    },
    {
      "inputs": [
        {
          "internalType": "uint256",
          "name": "pollId",
          "type": "uint256"
        },
        {
          "internalType": "bytes32",
          "name": "voterCommitment",
          "type": "bytes32"
        },
        {
          "internalType": "externalEuint256",
          "name": "encryptedComment",
          "type": "bytes32"
        },
        {
          "internalType": "bytes",
          "name": "inputProof",
          "type": "bytes"
        }
      ],
      "name": "submitComment",
      "outputs": [],
      "stateMutability": "nonpayable",
      "type": "function"
    },
    {
      "inputs": [
        {
          "internalType": "uint256",
          "name": "pollId",
          "type": "uint256"
        },
        {
          "internalType": "uint64[]",
          "name": "revealedCounts",
          "type": "uint64[]"
        }
      ],
      "name": "submitRevealedVoteCounts",
      "outputs": [],
      "stateMutability": "nonpayable",
      "type": "function"
    },
    {
      "inputs": [],
      "name": "totalPolls",
      "outputs": [
        {
          "internalType": "uint256",
          "name": "",
          "type": "uint256"
        }
      ],
      "stateMutability": "view",
      "type": "function"
    },
    {
      "inputs": [
        {
          "internalType": "address",
          "name": "newOwner",
          "type": "address"
        }
      ],
      "name": "transferOwnership",
      "outputs": [],
      "stateMutability": "nonpayable",
      "type": "function"
    },
    {
      "inputs": [],
      "name": "unpause",
      "outputs": [],
      "stateMutability": "nonpayable",
      "type": "function"
    },
    {
      "inputs": [
        {
          "internalType": "uint256",
          "name": "pollId",
          "type": "uint256"
        },
        {
          "internalType": "externalEuint256",
          "name": "newEncryptedQuestion",
          "type": "bytes32"
        },
        {
          "internalType": "externalEuint256",
          "name": "newEncryptedQuestionImageCID",
          "type": "bytes32"
        },
        {
          "internalType": "bytes",
          "name": "inputProof",
          "type": "bytes"
        }
      ],
      "name": "updatePollMetadata",
      "outputs": [],
      "stateMutability": "nonpayable",
      "type": "function"
    },
    {
      "inputs": [
        {
          "internalType": "uint256",
          "name": "pollId",
          "type": "uint256"
        },
        {
          "internalType": "uint256",
          "name": "optionId",
          "type": "uint256"
        },
        {
          "internalType": "bytes32",
          "name": "voterCommitment",
          "type": "bytes32"
        },
        {
          "internalType": "externalEuint64",
          "name": "encryptedWeight",
          "type": "bytes32"
        },
        {
          "internalType": "bytes",
          "name": "inputProof",
          "type": "bytes"
        }
      ],
      "name": "vote",
      "outputs": [],
      "stateMutability": "nonpayable",
      "type": "function"
    },
    {
      "inputs": [
        {
          "internalType": "address payable",
          "name": "to",
          "type": "address"
        }
      ],
      "name": "withdrawFees",
      "outputs": [],
      "stateMutability": "nonpayable",
      "type": "function"
    }
  ],
  "bytecode": "0x608060405234801562000010575f80fd5b50466001036200010557620000ff6200005660408051606080820183525f8083526020808401829052928401819052835191820184528082529181018290529182015290565b80517f9e7b61f58c47dc699ac88507c4f5bb9f121c03808c5676a8078fe583e464970080546001600160a01b03199081166001600160a01b039384161790915560208301517f9e7b61f58c47dc699ac88507c4f5bb9f121c03808c5676a8078fe583e46497018054831691841691909117905560408301517f9e7b61f58c47dc699ac88507c4f5bb9f121c03808c5676a8078fe583e46497028054909216921691909117905550565b62000218565b4662aa36a7036200018f57620000ff62000056604080516060810182525f8082526020820181905291810191909152506040805160608101825273f0ffdc93b7e186bc2f8cb3daa75d86d1930a433d81527392c920834ec8941d2c77d188936e1f7a6f49c127602082015273be0e383937d564d7ff0bc3b46c51f0bf8d5c311a9181019190915290565b46617a690362000218576200021862000056604080516060810182525f8082526020820181905291810191909152506040805160608101825273f0ffdc93b7e186bc2f8cb3daa75d86d1930a433d81527392c920834ec8941d2c77d188936e1f7a6f49c127602082015273be0e383937d564d7ff0bc3b46c51f0bf8d5c311a9181019190915290565b60015f81815581546001600160a01b031916339081179092556509184e72a0006002556040517f8be0079c531659141344cd1fd0a4f28419497f9722a3daafe3b4186f6b6457e0908290a36134ab80620002715f395ff3fe608060405260043610610243575f3560e01c80639003adfe11610131578063da1f12ab116100ac578063f184bab11161007c578063f571897f11610062578063f571897f146106a4578063f8bff745146106b7578063fb790a32146106d6575f80fd5b8063f184bab114610666578063f2fde38b14610685575f80fd5b8063da1f12ab146105f5578063ddbad61b14610609578063e1506c0214610628578063f046d8cc14610647575f80fd5b8063a1ec699f11610101578063a832875f116100e7578063a832875f14610583578063b84ba938146105a2578063c3ea2965146105c1575f80fd5b8063a1ec699f14610543578063a2eeeb2f1461056f575f80fd5b80639003adfe146104b85780639534e637146104cd57806395b74af0146104ec5780639b36dbfe1461050b575f80fd5b80633f4ba83a116101c1578063715018a6116101915780638980f11f116101775780638980f11f146104435780638c9cbb98146104625780638da5cb5b14610481575f80fd5b8063715018a61461041b5780638456cb591461042f575f80fd5b80633f4ba83a146103b457806342a281bf146103c85780635c975abb146103dc5780636899cb70146103fc575f80fd5b806324be3bdd116102165780633a8642cf116101fc5780633a8642cf146103115780633db8e233146103765780633f42426814610395575f80fd5b806324be3bdd146102d35780633426494b146102f2575f80fd5b806301d0c6b0146102475780630da183d61461027b578063164e68de1461029d5780631e0412ab146102be575b5f80fd5b348015610252575f80fd5b50610266610261366004612fa2565b6106f5565b60405190151581526020015b60405180910390f35b348015610286575f80fd5b5061028f600381565b604051908152602001610272565b3480156102a8575f80fd5b506102bc6102b7366004612fd0565b61074a565b005b3480156102c9575f80fd5b5061028f60025481565b3480156102de575f80fd5b5061028f6102ed366004612feb565b6108d9565b3480156102fd575f80fd5b5061028f61030c36600461300b565b6109b2565b34801561031c575f80fd5b5061033061032b366004613034565b610aad565b6040805197151588529515156020880152931515948601949094526060850191909152608084015260a08301919091526001600160a01b031660c082015260e001610272565b348015610381575f80fd5b506102bc610390366004613090565b610b6d565b3480156103a0575f80fd5b5061028f6103af366004612feb565b610f54565b3480156103bf575f80fd5b506102bc61102c565b3480156103d3575f80fd5b5061028f600181565b3480156103e7575f80fd5b5060015461026690600160a01b900460ff1681565b348015610407575f80fd5b506102bc610416366004612fd0565b6110a9565b348015610426575f80fd5b506102bc6111f3565b34801561043a575f80fd5b506102bc61128f565b34801561044e575f80fd5b506102bc61045d3660046130ec565b611312565b34801561046d575f80fd5b506102bc61047c366004613090565b611374565b34801561048c575f80fd5b506001546104a0906001600160a01b031681565b6040516001600160a01b039091168152602001610272565b3480156104c3575f80fd5b5061028f60035481565b3480156104d8575f80fd5b506102bc6104e7366004613034565b6115b6565b3480156104f7575f80fd5b506102bc610506366004613157565b61173a565b348015610516575f80fd5b5061052a610525366004612feb565b611959565b60405167ffffffffffffffff9091168152602001610272565b34801561054e575f80fd5b5061056261055d36600461319f565b611aa5565b60405161027291906131d1565b34801561057a575f80fd5b5060045461028f565b34801561058e575f80fd5b5061028f61059d366004612feb565b611ba8565b3480156105ad575f80fd5b506102bc6105bc366004613214565b611c23565b3480156105cc575f80fd5b5061028f6105db366004612fd0565b6001600160a01b03165f9081526005602052604090205490565b348015610600575f80fd5b5061028f611fe7565b348015610614575f80fd5b506102bc610623366004613034565b61201c565b348015610633575f80fd5b5061028f610642366004613034565b612220565b348015610652575f80fd5b5061028f610661366004613034565b61228b565b348015610671575f80fd5b506102bc610680366004613034565b6122f7565b348015610690575f80fd5b506102bc61069f366004612fd0565b612378565b61028f6106b236600461328d565b61247c565b3480156106c2575f80fd5b5061028f6106d1366004612feb565b612993565b3480156106e1575f80fd5b506105626106f0366004612fd0565b612a6c565b6004545f90831061070757505f610744565b816001600160a01b03166004848154811061072457610724613358565b5f91825260209091206006600a9092020101546001600160a01b03161490505b92915050565b6001546001600160a01b031633146107955760405162461bcd60e51b81526020600482015260096024820152682737ba1037bbb732b960b91b60448201526064015b60405180910390fd5b61079d612ad5565b5f600354116107ee5760405162461bcd60e51b815260206004820152600760248201527f4e6f206665657300000000000000000000000000000000000000000000000000604482015260640161078c565b600380545f918290556040519091906001600160a01b0384169083908381818185875af1925050503d805f8114610840576040519150601f19603f3d011682016040523d82523d5f602084013e610845565b606091505b50509050806108885760405162461bcd60e51b815260206004820152600f60248201526e15da5d1a191c985dc819985a5b1959608a1b604482015260640161078c565b826001600160a01b03167fc0819c13be868895eb93e40eaceb96de976442fa1d404e5c55f14bb65a8c489a836040516108c391815260200190565b60405180910390a250506108d660015f55565b50565b6004545f90831061091b5760405162461bcd60e51b815260206004820152600c60248201526b125b9d985b1a59081c1bdb1b60a21b604482015260640161078c565b5f6004848154811061092f5761092f613358565b905f5260205f2090600a02019050806002018054905083106109845760405162461bcd60e51b815260206004820152600e60248201526d24b73b30b634b21037b83a34b7b760911b604482015260640161078c565b80600201838154811061099957610999613358565b905f5260205f2090600302016001015491505092915050565b6004545f9084106109f45760405162461bcd60e51b815260206004820152600c60248201526b125b9d985b1a59081c1bdb1b60a21b604482015260640161078c565b5f60048581548110610a0857610a08613358565b5f91825260208083208784526005600a9093020191820190526040909120549091508310610a785760405162461bcd60e51b815260206004820152601560248201527f496e76616c696420636f6d6d656e7420696e6465780000000000000000000000604482015260640161078c565b5f8481526005820160205260409020805484908110610a9957610a99613358565b905f5260205f2001549150505b9392505050565b5f805f805f805f6004805490508810610af75760405162461bcd60e51b815260206004820152600c60248201526b125b9d985b1a59081c1bdb1b60a21b604482015260640161078c565b5f60048981548110610b0b57610b0b613358565b5f9182526020909120600a90910201600681015460028201546007830154600890930154600160a01b830460ff9081169e600160a81b850482169e50600160b01b85049091169c50919a509298509196506001600160a01b0316945092505050565b600454859081108015610bac575060048181548110610b8e57610b8e613358565b905f5260205f2090600a020160060160149054906101000a900460ff165b610be85760405162461bcd60e51b815260206004820152600d60248201526c506f6c6c20696e61637469766560981b604482015260640161078c565b60045486908110610c2a5760405162461bcd60e51b815260206004820152600c60248201526b125b9d985b1a59081c1bdb1b60a21b604482015260640161078c565b5f60048281548110610c3e57610c3e613358565b905f5260205f2090600a020190508060080154421115610cdc576006810154600160a01b900460ff1615610ca65760068101805460ff60a01b1916905560405182907f703c67c157a1afb7d386ce5212ee88bf0a690bca998060e9595ebdfd747100ce905f90a25b60405162461bcd60e51b815260206004820152600b60248201526a141bdb1b0818db1bdcd95960aa1b604482015260640161078c565b8060070154421015610d235760405162461bcd60e51b815260206004820152601060248201526f141bdb1b081b9bdd081cdd185c9d195960821b604482015260640161078c565b600154600160a01b900460ff1615610d6f5760405162461bcd60e51b815260206004820152600f60248201526e10dbdb9d1c9858dd081c185d5cd959608a1b604482015260640161078c565b5f60048981548110610d8357610d83613358565b905f5260205f2090600a020190508060060160169054906101000a900460ff16610def5760405162461bcd60e51b815260206004820152601160248201527f436f6d6d656e74732064697361626c6564000000000000000000000000000000604482015260640161078c565b5f88815260038201602052604090205460ff16610e4e5760405162461bcd60e51b815260206004820152601460248201527f4d75737420766f746520746f20636f6d6d656e74000000000000000000000000604482015260640161078c565b5f888152600582016020526040902054600111610ead5760405162461bcd60e51b815260206004820152601460248201527f4d617820636f6d6d656e74732072656163686564000000000000000000000000604482015260640161078c565b5f610eed8888888080601f0160208091040260200160405190810160405280939291908181526020018383808284375f92019190915250612afd92505050565b9050610ef881612b0a565b505f89815260058301602090815260408083208054600181018255908452918320909101839055518a918c917fb8fe06349d3a916b63b8f6b5be836cedb7abc599b2b06ce42fde34dc927d12cc9190a350505050505050505050565b6004545f908310610f965760405162461bcd60e51b815260206004820152600c60248201526b125b9d985b1a59081c1bdb1b60a21b604482015260640161078c565b5f60048481548110610faa57610faa613358565b905f5260205f2090600a0201905080600201805490508310610fff5760405162461bcd60e51b815260206004820152600e60248201526d24b73b30b634b21037b83a34b7b760911b604482015260640161078c565b80600201838154811061101457611014613358565b905f5260205f2090600302015f015491505092915050565b6001546001600160a01b031633146110725760405162461bcd60e51b81526020600482015260096024820152682737ba1037bbb732b960b91b604482015260640161078c565b6001805460ff60a01b191690556040517fa45f47fdea8a1efdd9029a5691c7f759c32b7c698632b563573e155625d16933905f90a1565b6001546001600160a01b031633146110ef5760405162461bcd60e51b81526020600482015260096024820152682737ba1037bbb732b960b91b604482015260640161078c565b6110f7612ad5565b5f600354476111069190613380565b90505f81116111575760405162461bcd60e51b815260206004820152600c60248201527f4e6f20737475636b204554480000000000000000000000000000000000000000604482015260640161078c565b5f826001600160a01b0316826040515f6040518083038185875af1925050503d805f81146111a0576040519150601f19603f3d011682016040523d82523d5f602084013e6111a5565b606091505b50509050806111e85760405162461bcd60e51b815260206004820152600f60248201526e15da5d1a191c985dc819985a5b1959608a1b604482015260640161078c565b50506108d660015f55565b6001546001600160a01b031633146112395760405162461bcd60e51b81526020600482015260096024820152682737ba1037bbb732b960b91b604482015260640161078c565b6001546040515f916001600160a01b0316907f8be0079c531659141344cd1fd0a4f28419497f9722a3daafe3b4186f6b6457e0908390a36001805473ffffffffffffffffffffffffffffffffffffffff19169055565b6001546001600160a01b031633146112d55760405162461bcd60e51b81526020600482015260096024820152682737ba1037bbb732b960b91b604482015260640161078c565b6001805460ff60a01b1916600160a01b1790556040517f9e87fac88ff661f02d44f95383c817fece4bce600a3dab7a54406878b965e752905f90a1565b6001546001600160a01b031633146113585760405162461bcd60e51b81526020600482015260096024820152682737ba1037bbb732b960b91b604482015260640161078c565b6001546113709083906001600160a01b031683612b19565b5050565b6004548590811080156113bd5750336001600160a01b03166004828154811061139f5761139f613358565b5f91825260209091206006600a9092020101546001600160a01b0316145b6113fa5760405162461bcd60e51b815260206004820152600e60248201526d139bdd08185d5d1a1bdc9a5e995960921b604482015260640161078c565b60045486908110801561143957506004818154811061141b5761141b613358565b905f5260205f2090600a020160060160149054906101000a900460ff165b6114755760405162461bcd60e51b815260206004820152600d60248201526c506f6c6c20696e61637469766560981b604482015260640161078c565b600154600160a01b900460ff16156114c15760405162461bcd60e51b815260206004820152600f60248201526e10dbdb9d1c9858dd081c185d5cd959608a1b604482015260640161078c565b5f600488815481106114d5576114d5613358565b905f5260205f2090600a020190506115228786868080601f0160208091040260200160405190810160405280939291908181526020018383808284375f92019190915250612afd92505050565b8155604080516020601f87018190048102820181019092528581526115639188919088908890819084018382808284375f92019190915250612afd92505050565b6001820155805461157390612b0a565b506115818160010154612b0a565b5060405188907fc6cdd79eae1885b2d966153463ed04a1e42010a0d3a63d8dd28f9e676cb237c1905f90a25050505050505050565b6004548190811080156115ff5750336001600160a01b0316600482815481106115e1576115e1613358565b5f91825260209091206006600a9092020101546001600160a01b0316145b61163c5760405162461bcd60e51b815260206004820152600e60248201526d139bdd08185d5d1a1bdc9a5e995960921b604482015260640161078c565b600454821061167c5760405162461bcd60e51b815260206004820152600c60248201526b125b9d985b1a59081c1bdb1b60a21b604482015260640161078c565b5f6004838154811061169057611690613358565b905f5260205f2090600a020190508060060160149054906101000a900460ff166116fc5760405162461bcd60e51b815260206004820152600e60248201527f416c726561647920636c6f736564000000000000000000000000000000000000604482015260640161078c565b60068101805460ff60a01b1916905560405183907f703c67c157a1afb7d386ce5212ee88bf0a690bca998060e9595ebdfd747100ce905f90a2505050565b6004548390811080156117835750336001600160a01b03166004828154811061176557611765613358565b5f91825260209091206006600a9092020101546001600160a01b0316145b6117c05760405162461bcd60e51b815260206004820152600e60248201526d139bdd08185d5d1a1bdc9a5e995960921b604482015260640161078c565b5f600485815481106117d4576117d4613358565b905f5260205f2090600a020190508060060160159054906101000a900460ff16158061180257506009810154155b6118415760405162461bcd60e51b815260206004820152601060248201526f105b1c9958591e481c995d99585b195960821b604482015260640161078c565b600281015483146118945760405162461bcd60e51b815260206004820152601160248201527f4d69736d61746368656420636f756e7473000000000000000000000000000000604482015260640161078c565b5f5b8381101561191257816009018585838181106118b4576118b4613358565b90506020020160208101906118c99190613393565b8154600180820184555f93845260209093206004820401805460039092166008026101000a67ffffffffffffffff81810219909316939092169190910291909117905501611896565b5060068101805460ff60a81b1916600160a81b17905560405185907fa4593df9ad00ee2ed1aa51b32e4e7ddd16e5ca8d191cc3c7f450bfdbd0507118905f90a25050505050565b6004545f90831061199b5760405162461bcd60e51b815260206004820152600c60248201526b125b9d985b1a59081c1bdb1b60a21b604482015260640161078c565b5f600484815481106119af576119af613358565b905f5260205f2090600a020190508060060160159054906101000a900460ff16611a1b5760405162461bcd60e51b815260206004820152600c60248201527f4e6f742072657665616c65640000000000000000000000000000000000000000604482015260640161078c565b60028101548310611a5f5760405162461bcd60e51b815260206004820152600e60248201526d24b73b30b634b21037b83a34b7b760911b604482015260640161078c565b806009018381548110611a7457611a74613358565b905f5260205f2090600491828204019190066008029054906101000a900467ffffffffffffffff1691505092915050565b6001600160a01b0383165f908152600560205260409020805460609190808510611ae0575050604080515f8152602081019091529050610aa6565b5f611aeb85876133ce565b905081811115611af85750805b5f611b038783613380565b67ffffffffffffffff811115611b1b57611b1b6133ba565b604051908082528060200260200182016040528015611b44578160200160208202803683370190505b509050865b82811015611b9c57848181548110611b6357611b63613358565b905f5260205f200154828983611b799190613380565b81518110611b8957611b89613358565b6020908102919091010152600101611b49565b50979650505050505050565b6004545f908310611bea5760405162461bcd60e51b815260206004820152600c60248201526b125b9d985b1a59081c1bdb1b60a21b604482015260640161078c565b60048381548110611bfd57611bfd613358565b5f9182526020808320948352600a91909102909301600501909252506040902054919050565b600454869081108015611c62575060048181548110611c4457611c44613358565b905f5260205f2090600a020160060160149054906101000a900460ff165b611c9e5760405162461bcd60e51b815260206004820152600d60248201526c506f6c6c20696e61637469766560981b604482015260640161078c565b60045487908110611ce05760405162461bcd60e51b815260206004820152600c60248201526b125b9d985b1a59081c1bdb1b60a21b604482015260640161078c565b5f60048281548110611cf457611cf4613358565b905f5260205f2090600a020190508060080154421115611d91576006810154600160a01b900460ff1615610ca65760068101805460ff60a01b1916905560405182907f703c67c157a1afb7d386ce5212ee88bf0a690bca998060e9595ebdfd747100ce905f90a260405162461bcd60e51b815260206004820152600b60248201526a141bdb1b0818db1bdcd95960aa1b604482015260640161078c565b8060070154421015611dd85760405162461bcd60e51b815260206004820152601060248201526f141bdb1b081b9bdd081cdd185c9d195960821b604482015260640161078c565b600154600160a01b900460ff1615611e245760405162461bcd60e51b815260206004820152600f60248201526e10dbdb9d1c9858dd081c185d5cd959608a1b604482015260640161078c565b5f60048a81548110611e3857611e38613358565b5f91825260208083208b84526003600a90930201918201905260409091205490915060ff1615611eaa5760405162461bcd60e51b815260206004820152600d60248201527f416c726561647920766f74656400000000000000000000000000000000000000604482015260640161078c565b60028101548910611eee5760405162461bcd60e51b815260206004820152600e60248201526d24b73b30b634b21037b83a34b7b760911b604482015260640161078c565b5f611f2e8888888080601f0160208091040260200160405190810160405280939291908181526020018383808284375f92019190915250612b8592505050565b9050611f5e826002018b81548110611f4857611f48613358565b905f5260205f2090600302016002015482612b92565b826002018b81548110611f7357611f73613358565b5f91825260208083206002600393840290910101939093558b8252840182526040808220805460ff191660011790556004850190925281812083905590518b918b918e917f2d5d5adff759341f1e2cc20cd5f911101d22fae5437742e48892ad7c1fd5316b91a45050505050505050505050565b5f46600103611ff65750600190565b4662aa36a703612007575061271190565b46617a6903612017575061271190565b505f90565b6004548190811080156120655750336001600160a01b03166004828154811061204757612047613358565b5f91825260209091206006600a9092020101546001600160a01b0316145b6120a25760405162461bcd60e51b815260206004820152600e60248201526d139bdd08185d5d1a1bdc9a5e995960921b604482015260640161078c565b5f600483815481106120b6576120b6613358565b905f5260205f2090600a02019050806008015442116121175760405162461bcd60e51b815260206004820152600e60248201527f506f6c6c206e6f7420656e646564000000000000000000000000000000000000604482015260640161078c565b6006810154600160a81b900460ff16156121665760405162461bcd60e51b815260206004820152601060248201526f105b1c9958591e481c995d99585b195960821b604482015260640161078c565b60068101805460ff60a81b1916600160a81b1790555f5b60028201548110156121f05780847f8adc0c06998c74ef222303c6c9a6a5eca9198f8f4d594abb495e030182b18f938460020184815481106121c1576121c1613358565b905f5260205f209060030201600201546040516121e091815260200190565b60405180910390a360010161217d565b5060405183907fa4593df9ad00ee2ed1aa51b32e4e7ddd16e5ca8d191cc3c7f450bfdbd0507118905f90a2505050565b6004545f9082106122625760405162461bcd60e51b815260206004820152600c60248201526b125b9d985b1a59081c1bdb1b60a21b604482015260640161078c565b6004828154811061227557612275613358565b905f5260205f2090600a02015f01549050919050565b6004545f9082106122cd5760405162461bcd60e51b815260206004820152600c60248201526b125b9d985b1a59081c1bdb1b60a21b604482015260640161078c565b600482815481106122e0576122e0613358565b905f5260205f2090600a0201600101549050919050565b6001546001600160a01b0316331461233d5760405162461bcd60e51b81526020600482015260096024820152682737ba1037bbb732b960b91b604482015260640161078c565b60028190556040518181527f1499e5b3a0b119753a11e121619d27fa8ebff5024a607ea6f4a5e10f716edae29060200160405180910390a150565b6001546001600160a01b031633146123be5760405162461bcd60e51b81526020600482015260096024820152682737ba1037bbb732b960b91b604482015260640161078c565b6001600160a01b0381166124145760405162461bcd60e51b815260206004820152600e60248201527f4e6577206f776e6572207a65726f000000000000000000000000000000000000604482015260640161078c565b6001546040516001600160a01b038084169216907f8be0079c531659141344cd1fd0a4f28419497f9722a3daafe3b4186f6b6457e0905f90a36001805473ffffffffffffffffffffffffffffffffffffffff19166001600160a01b0392909216919091179055565b6001545f90600160a01b900460ff16156124ca5760405162461bcd60e51b815260206004820152600f60248201526e10dbdb9d1c9858dd081c185d5cd959608a1b604482015260640161078c565b600254341461251b5760405162461bcd60e51b815260206004820152600d60248201527f496e636f72726563742066656500000000000000000000000000000000000000604482015260640161078c565b88871461256a5760405162461bcd60e51b815260206004820152601060248201527f4f7074696f6e73206d69736d6174636800000000000000000000000000000000604482015260640161078c565b6002891080159061257c575060038911155b6125c85760405162461bcd60e51b815260206004820152601560248201527f496e76616c6964206f7074696f6e7320636f756e740000000000000000000000604482015260640161078c565b8183106126175760405162461bcd60e51b815260206004820152601160248201527f496e76616c696420706f6c6c2074696d65000000000000000000000000000000604482015260640161078c565b428310156126675760405162461bcd60e51b815260206004820152601260248201527f53746172742074696d6520696e20706173740000000000000000000000000000604482015260640161078c565b3460035f82825461267891906133ce565b909155505060048054600181018083555f8381529192908390811061269f5761269f613358565b905f5260205f2090600a0201905033816006015f6101000a8154816001600160a01b0302191690836001600160a01b031602179055506127148e89898080601f0160208091040260200160405190810160405280939291908181526020018383808284375f92019190915250612afd92505050565b8155604080516020601f8a01819004810282018101909252888152612755918f91908b908b90819084018382808284375f92019190915250612afd92505050565b6001820155600681018054871515600160b01b027fffffffffffffffffff000000ffffffffffffffffffffffffffffffffffffffff90911617600160a01b179055600781018590556008810184905580546127af90612b0a565b506127bd8160010154612b0a565b505f5b8b811015612921575f6128208e8e848181106127de576127de613358565b905060200201358b8b8080601f0160208091040260200160405190810160405280939291908181526020018383808284375f92019190915250612afd92505050565b90505f61287a8d8d8581811061283857612838613358565b905060200201358c8c8080601f0160208091040260200160405190810160405280939291908181526020018383808284375f92019190915250612afd92505050565b90508360020160405180606001604052808481526020018381526020016128a05f612bc0565b90528154600181810184555f93845260209384902083516003909302019182559282015192810192909255604001516002909101556128de82612b0a565b506128e881612b0a565b5061291684600201848154811061290157612901613358565b905f5260205f20906003020160020154612b0a565b5050506001016127c0565b50335f818152600560209081526040808320805460018101825590845291909220018490555183907faadd42136a8af4abe3fe4fd783fd11cd4343386418392c4808d02769696fe16b9061297a908a1515815260200190565b60405180910390a3509c9b505050505050505050505050565b6004545f9083106129d55760405162461bcd60e51b815260206004820152600c60248201526b125b9d985b1a59081c1bdb1b60a21b604482015260640161078c565b5f600484815481106129e9576129e9613358565b905f5260205f2090600a0201905080600201805490508310612a3e5760405162461bcd60e51b815260206004820152600e60248201526d24b73b30b634b21037b83a34b7b760911b604482015260640161078c565b806002018381548110612a5357612a53613358565b905f5260205f2090600302016002015491505092915050565b6001600160a01b0381165f90815260056020908152604091829020805483518184028101840190945280845260609392830182828015612ac957602002820191905f5260205f20905b815481526020019060010190808311612ab5575b50505050509050919050565b60025f5403612af757604051633ee5aeb560e01b815260040160405180910390fd5b60025f55565b5f610aa683836008612bd6565b5f612b158230612cf6565b5090565b604080516001600160a01b038416602482015260448082018490528251808303909101815260649091019091526020810180517bffffffffffffffffffffffffffffffffffffffffffffffffffffffff1663a9059cbb60e01b179052612b80908490612d7f565b505050565b5f610aa683836005612bd6565b5f82612ba457612ba15f612bc0565b92505b81612bb557612bb25f612bc0565b91505b610aa683835f612df1565b5f6107448267ffffffffffffffff166005612ed1565b7f9e7b61f58c47dc699ac88507c4f5bb9f121c03808c5676a8078fe583e46497015460405163045fc19560e11b81525f917f9e7b61f58c47dc699ac88507c4f5bb9f121c03808c5676a8078fe583e4649700916001600160a01b03909116906308bf832a90612c4f908890339089908990600401613401565b6020604051808303815f875af1158015612c6b573d5f803e3d5ffd5b505050506040513d601f19601f82011682018060405250810190612c8f9190613473565b8154604051630f8e573b60e21b8152600481018390523360248201529193506001600160a01b031690633e395cec906044015f604051808303815f87803b158015612cd8575f80fd5b505af1158015612cea573d5f803e3d5ffd5b50505050509392505050565b5f7f9e7b61f58c47dc699ac88507c4f5bb9f121c03808c5676a8078fe583e46497008054604051635ca4b5b160e11b8152600481018690526001600160a01b03858116602483015292935091169063b9496b62906044015f604051808303815f87803b158015612d64575f80fd5b505af1158015612d76573d5f803e3d5ffd5b50505050505050565b5f8060205f8451602086015f885af180612d9e576040513d5f823e3d81fd5b50505f513d91508115612db5578060011415612dc2565b6001600160a01b0384163b155b15612deb57604051635274afe760e01b81526001600160a01b038516600482015260240161078c565b50505050565b5f808215612e045750600160f81b612e07565b505f5b5f7f9e7b61f58c47dc699ac88507c4f5bb9f121c03808c5676a8078fe583e4649700600181015460405163022f65e760e31b815260048101899052602481018890527fff00000000000000000000000000000000000000000000000000000000000000851660448201529192506001600160a01b03169063117b2f38906064016020604051808303815f875af1158015612ea3573d5f803e3d5ffd5b505050506040513d601f19601f82011682018060405250810190612ec79190613473565b9695505050505050565b7f9e7b61f58c47dc699ac88507c4f5bb9f121c03808c5676a8078fe583e464970154604051639cd07acb60e01b81525f917f9e7b61f58c47dc699ac88507c4f5bb9f121c03808c5676a8078fe583e4649700916001600160a01b0390911690639cd07acb90612f46908790879060040161348a565b6020604051808303815f875af1158015612f62573d5f803e3d5ffd5b505050506040513d601f19601f82011682018060405250810190612f869190613473565b949350505050565b6001600160a01b03811681146108d6575f80fd5b5f8060408385031215612fb3575f80fd5b823591506020830135612fc581612f8e565b809150509250929050565b5f60208284031215612fe0575f80fd5b8135610aa681612f8e565b5f8060408385031215612ffc575f80fd5b50508035926020909101359150565b5f805f6060848603121561301d575f80fd5b505081359360208301359350604090920135919050565b5f60208284031215613044575f80fd5b5035919050565b5f8083601f84011261305b575f80fd5b50813567ffffffffffffffff811115613072575f80fd5b602083019150836020828501011115613089575f80fd5b9250929050565b5f805f805f608086880312156130a4575f80fd5b853594506020860135935060408601359250606086013567ffffffffffffffff8111156130cf575f80fd5b6130db8882890161304b565b969995985093965092949392505050565b5f80604083850312156130fd575f80fd5b823561310881612f8e565b946020939093013593505050565b5f8083601f840112613126575f80fd5b50813567ffffffffffffffff81111561313d575f80fd5b6020830191508360208260051b8501011115613089575f80fd5b5f805f60408486031215613169575f80fd5b83359250602084013567ffffffffffffffff811115613186575f80fd5b61319286828701613116565b9497909650939450505050565b5f805f606084860312156131b1575f80fd5b83356131bc81612f8e565b95602085013595506040909401359392505050565b602080825282518282018190525f9190848201906040850190845b81811015613208578351835292840192918401916001016131ec565b50909695505050505050565b5f805f805f8060a08789031215613229575f80fd5b86359550602087013594506040870135935060608701359250608087013567ffffffffffffffff81111561325b575f80fd5b61326789828a0161304b565b979a9699509497509295939492505050565b80358015158114613288575f80fd5b919050565b5f805f805f805f805f805f6101008c8e0312156132a8575f80fd5b8b359a5060208c0135995067ffffffffffffffff8060408e013511156132cc575f80fd5b6132dc8e60408f01358f01613116565b909a50985060608d01358110156132f1575f80fd5b6133018e60608f01358f01613116565b909850965060808d0135811015613316575f80fd5b506133278d60808e01358e0161304b565b909550935061333860a08d01613279565b925060c08c0135915060e08c013590509295989b509295989b9093969950565b634e487b7160e01b5f52603260045260245ffd5b634e487b7160e01b5f52601160045260245ffd5b818103818111156107445761074461336c565b5f602082840312156133a3575f80fd5b813567ffffffffffffffff81168114610aa6575f80fd5b634e487b7160e01b5f52604160045260245ffd5b808201808211156107445761074461336c565b605481106133fd57634e487b7160e01b5f52602160045260245ffd5b9052565b8481525f60206001600160a01b03861660208401526080604084015284518060808501525f5b818110156134435786810183015185820160a001528201613427565b505f60a0828601015260a0601f19601f8301168501019250505061346a60608301846133e1565b95945050505050565b5f60208284031215613483575f80fd5b5051919050565b82815260408101610aa660208301846133e156fea164736f6c6343000818000a",
  "linkReferences": {},
  "deployedLinkReferences": {}
}